:020000040800F2
:10000000B0140020E1010008E5010008E701000844
:10001000E9010008EB010008ED0100080000000004
:10002000000000000000000000000000EF010008D8
:10003000F101000800000000F3010008F5010008CC
:10004000F7010008F7010008F7010008F7010008B0
:10005000F7010008F7010008F7010008F7010008A0
:10006000F7010008F7010008F7010008F701000890
:10007000F7010008F7010008F7010008F701000880
:10008000F7010008F7010008F7010008F701000870
:10009000F7010008F7010008F7010008F701000860
:1000A000F7010008F7010008F7010008F701000850
:1000B000F7010008F7010008F7010008F701000840
:1000C000F7010008F7010008F7010008F701000830
:1000D000F7010008A305000889330008F7010008AC
:1000E000F7010008F7010008F7010008F701000810
:1000F000F7010008F7010008F7010008F701000800
:10010000F7010008F7010008F7010008F7010008EF
:100110001D310008F7010008F7010008F701000889
:10012000F7010008F7010008F7010008F7010008CF
:1001300000F002F800F03FF80AA090E8000C8244BA
:100140008344AAF10107DA4501D100F034F8AFF297
:10015000090EBAE80F0013F0010F18BFFB1A43F0A5
:10016000010318474474000064740000103A24BF6F
:1001700078C878C1FAD8520724BF30C830C144BF0C
:1001800004680C607047000000230024002500264E
:10019000103A28BF78C1FBD8520728BF30C148BFEA
:1001A0000B607047782903F01383002070471FB558
:1001B0001FBD10B510BD03F0D5FB1146FFF7F7FFCB
:1001C00000F053FC03F0F3FB03B4FFF7F2FF03BCB2
:1001D00000F0D8F930BF72B662B680F30888704775
:1001E00008480047FEE7FEE7FEE7FEE7FEE7FEE71A
:1001F000FEE7FEE7FEE7FEE703480449044A054B35
:100200007047000031010008B00E0020B01400203B
:10021000B0100020B01000204FF0E021096921F05B
:1002200004014FF0E0221161C21700EB5272C2F3D9
:10023000C702234B1A701946097801EB4102C2EB41
:10024000C1114FF6FF7202EAC1011E4A11807047C8
:1002500001461B4A12784A434FF0E0235A610022BC
:100260009A6101221A6100BF4FF0E022106900F08C
:1002700001021AB100F48032002AF5D000224FF0BA
:10028000E0231A619A61704701460E4A12884A4378
:100290004FF0E0235A6100229A6101221A6100BFE7
:1002A0004FF0E022106900F001021AB100F4803230
:1002B000002AF5D000224FF0E0231A619A617047BE
:1002C0000000002002000020A34A0A400243A34B82
:1002D0001A6070470146072323EA010212029F4B6E
:1002E0001B1D18684FF6FF0318409D4B1843104321
:1002F0009A4B1B1D186070472DE9F0410746884650
:1003000014461D462846FFF7E5FFC5F1040007FA2D
:1003100000F60F20284100EA0800064306F00F0609
:10032000E21704EBD2625211920002F1E022D2F8FD
:1003300000212146E31704EBD3635B11A4EB431CBC
:10034000012303FA0CF31A432046E31704EBD363AB
:100350005B119B0003F1E023C3F800218148005D9D
:1003600040EA06107F490855BDE8F08170B50446A3
:100370000B46CE1701EB9676C6F38700CE1701EB3E
:100380009676B610A1EB8606B606350E764B9B69BF
:1003900043F00103744EB3614FEAB63353F8203093
:1003A0000F26AE40B343714E46F82030334653F823
:1003B000203004FA05F61E436C4B43F820606C4B6A
:1003C0001B6801268E403343694E336002F00103FF
:1003D00043B1674B0C331B6801268E403343644E98
:1003E0000C36336002F0020343B1614B08331E68E0
:1003F00001238B401E435E4B08331E6070BD00B569
:10040000002059490861C8601420486100208861B3
:10041000C8610846006840F001000860084640686E
:10042000544908405049486008460068524908400D
:100430004D4908600846006820F48020086008469E
:10044000406820F4FE0048600020886000214FF0E2
:100450000060FFF739FF00BD10B540480830006864
:1004600040F004003D49083108603F48C06940F051
:1004700080503D49C8614148406840F480703F4920
:1004800048600846006840F00400086008460068BC
:1004900040F002000860FFF79DFE10BD3048001DCF
:1004A0002E49091D08607047014649062E4A926987
:1004B00042F001022C4B9A612C4A083A526822F011
:1004C000E0622A4B083B5A601A4652680A435A6057
:1004D000704730B504460025FFF791FF22480068B9
:1004E00040F480302049086000BF1F480068400C7D
:1004F0000028FAD04FF480601B494860A01EC4B2A7
:100500000846406840EA844048600846406840F435
:10051000803048601A48006840F03200184908608E
:100520001148006840F080700F49086000BF0E4815
:100530000068400E0028FAD00B48406840F00200E6
:100540000949486005E008484068C0F3870505F0A0
:100550000305022DF7D130BD80FFFF1F08ED00E03D
:100560000000FA0500E400E000100240080001402D
:10057000000401400000FFF8FFFFF6FE007000409D
:1005800000200240014600BF704700BF584A128851
:1005900002F04002002AF9D0C2B2554B1B1D1A804E
:1005A00070475349098801F0200111B35049091DD2
:1005B0000988C8B24F49098801F40041C9B94D49B9
:1005C000098801F4804161B10A2803D00021494A19
:1005D000118020E04749098841F40041454A1180D3
:1005E00019E00D2806D14349098841F48041414A68
:1005F000118010E03F490988C1F30D013E4A505473
:100600003C490988491C3B4A118011460988C72981
:1006100001DD0021118070472DE9F05F05460E468F
:10062000300104F0E1FE8146344905FB01F004F09D
:10063000DBFE8246494604F0C1FD0746384604F019
:100640009BFE84B2204604F0CFFE8346394604F078
:10065000ABFF82464FF0834104F0DAFE814604F09E
:100660008BFE80464FF6FF7000EA041404EB08008E
:1006700084B22348806940F004002149886108461B
:10068000806940F4804088611E48006820F47F60E3
:100690001C4908600846006840F40B600860184870
:1006A000C06840F480401649C8600846C06820F41D
:1006B0008040C8600E4808300480001D008842F267
:1006C0000C0108430A490C3108800846008840F4B0
:1006D000807008800846008840F0200008800223CF
:1006E000252203210846FFF707FEBDE8F09F000022
:1006F00000380140080000204C00002040420F005C
:1007000000100240040801402DE9F04F8BB08146F3
:1007100000244FF0010B00200890099002208DF872
:100720002100834600BF0CE019F804002C2806D1F4
:1007300008A800F80B400BF1010000F0FF0B601C53
:10074000C4B2FE480088C0F30D00A042ECDC0020DB
:10075000FB4908709DF822009DF82110401A801E68
:1007600000F0FF0A9DF82100401CC4B22FE0504663
:1007700004F036F902460B46CDE900010020F149AC
:1007800003F08CF905460E4619F80410A1F130006B
:1007900004F00FF907462A46334604F071F9CDE913
:1007A0000401E748007804F01BF9CDE90201DDE916
:1007B000042303F0BBFECDE9060104F0CBF8E049C9
:1007C0000870AAF1010000F0FF0A601CC4B29DF895
:1007D0002200A042CBDC0020DB4908709DF82300FA
:1007E0009DF82210401A801E00F0FF0A9DF822009A
:1007F000401CC4B22FE0504604F0F2F805462A46E9
:100800000B460020CF4903F049F9CDE9020119F860
:100810000410A1F1300004F0CCF8CDE90001DDE9CD
:10082000022304F02DF907468846C748007804F0F3
:10083000D7F83A464346CDE9040103F077FECDE907
:10084000060104F087F8C0490870AAF1010000F021
:10085000FF0A601CC4B29DF82300A042CBDC00203C
:10086000B64908800BB0BDE8F08F38B5B7480088AE
:100870004011B64908804FF6FF700090B4480088D8
:10088000C01C82B2F0236E21B148008802F01FF82C
:100890006E2421E0AE4800880A2190FBF1F201FBB2
:1008A000120038B14FF4FC622146A948008801F0DB
:1008B00011FA0EE04FF4FC60A6490880F023A4482A
:1008C00002886E21008802F0A0F84FF47840A14918
:1008D000088004F10A0084B2F12CDBDB9B4800881D
:1008E0006E3083B29A480088401C82B29A480088D1
:1008F0006E3081B29648008802F087F893480088ED
:100900009549088092480088401C91490880084613
:100910000088B0F5A07F01DD0020088038BD2DE9FA
:10092000F0478046894692460027002637E08B48EC
:1009300000EB4A10C55D002410E005F0800048B1CE
:1009400009EB060291B208EB040290B24FF4784230
:1009500001F0C0F96806050E601C84B2082CECDBBF
:10096000781C87B27D4800EB4A10C55D082410E072
:1009700005F0800048B109EB060291B208EB0402D1
:1009800090B24FF4784201F0A5F96806050E601C9C
:1009900084B2102CECDB781C87B2701C86B2102E4F
:1009A000C5DBBDE8F0872DE9F047804689469246D1
:1009B0000026002755E00AEBCA00694901EBC00098
:1009C000855D00240FE005F0800040B109EB0702CF
:1009D00091B208EB040290B21F2201F07BF9680685
:1009E000050E601C84B2082CEDDB701C86B20AEB8D
:1009F000CA005B4901EBC000855D08240FE005F0EB
:100A0000800040B109EB070291B208EB040290B2FA
:100A10001F2201F05FF96806050E601C84B2102CDD
:100A2000EDDB701C86B20AEBCA004D4901EBC00039
:100A3000855D10240FE005F0800040B109EB07024E
:100A400091B208EB040290B21F2201F043F968064C
:100A5000050E601C84B2182CEDDB701C86B2781C6D
:100A600087B2182FA7DBBDE8F0871CB50920FFF778
:100A700030FD4FF4E1314820FFF7CEFD4820FFF76D
:100A8000CBFB00F085FA01F0FFFC4FF41661242047
:100A900002F010FC02F00AFA00F0A0FA00F0E8F907
:100AA0004FF478402B49088000240BE004EB44010C
:100AB000402202EBC10188B222460021FFF773FFFA
:100AC000601C84B2082CF1DB002228211420FFF7DF
:100AD00026FF012228212420FFF721FF12222821AE
:100AE0003420FFF71CFF1FA010210B460822CDE980
:100AF00000102821542002F0A5F91122282162209B
:100B0000FFF70DFF09222821A020FFF708FF0A2286
:100B10002821B020FFF703FF0B222821C020FFF778
:100B2000FEFE0C222821D020FFF7F9FE12222821F8
:100B3000E020FFF7F4FE1522282115E00800002030
:100B400014000020000024401500002010000020A8
:100B50000C000020340000200E00002096570008F2
:100B6000765A00082E0000004FF48570FFF7D7FE7C
:100B7000162228214FF48D70FFF7D1FE02223C216E
:100B80001420FFF7CCFE03223C212420FFF7C7FEF0
:100B900012223C213420FFF7C2FEA0A010210B46F8
:100BA0000822CDE900103C214E2002F04BF904222E
:100BB0003C21A020FFF7B3FE05223C21B020FFF727
:100BC000AEFE12223C21C020FFF7A9FE13223C21D9
:100BD000E220FFF7A4FE92A010210B460822CDE9E7
:100BE00000103C21F22002F02DF914223C21FA20C1
:100BF000FFF795FE06225A210A20FFF790FE0722F2
:100C00005A211A20FFF78BFE08225A212A20FFF7CB
:100C100086FE12225A213A20FFF781FE2DE04FF086
:100C20006E0922E07F4800880A2190FBF1F201FB67
:100C3000120038B14FF4FC6249467A48008801F04E
:100C400049F80EE04FF4FC6077490880F0237548BE
:100C500002886E21008801F0D8FE4FF47840724976
:100C6000088009F10A001FFA80F9B9F1F10FD9DB08
:100C70006C480088401C6B4908806A480088B0F5C1
:100C8000A07FCCDD02F0BAFA684908600846006827
:100C900004F056FB6649087066496448006804F031
:100CA000B7FB054604F04CFB0A2190FBF1F201FB77
:100CB0001200614908701020032300905C480278FC
:100CC00028213C2002F015F81020012300905A48FA
:100CD000027828215A2002F00CF89CE0012002F052
:100CE00071F956490880FFF7C0FD0820FFF7CCFADC
:100CF00053480088401C5249088008460088322822
:100D00002FD1504989784F4A527801EB022004F0E4
:100D100053FB824604F0C4F907464B4A4B4B03F0A1
:100D2000AFFE054603F0D0FB494908600020494961
:100D300008704748006804F003FB642148434649B3
:100D40000860084600686421B0FBF1F04249086081
:100D5000102003230090084628210268F02001F0AB
:100D6000C8FF3748008864282DD100203449088006
:100D700002F044FA2D4908600846006804F0E0FAE1
:100D80002B4908702B492948006804F041FB0546AF
:100D900004F0D6FA0A2190FBF1F201FB1200264979
:100DA00008701020032300902148027828213C205D
:100DB00001F09FFF1020012300901F480278282196
:100DC0005A2001F096FF2548008800F40040A0B1A9
:100DD0002348FFF799FC1020022300902148027855
:100DE0003C21084601F085FF1020032300901E4897
:100DF00002783C21C82001F07CFF002000F080F840
:100E0000012808D1194802F05FFC0123DA02E3212E
:100E1000164802F00BFB61E7704700002500000058
:100E20002F0000000C0000203400002018000020DB
:100E300012000020000020411300002010000020BC
:100E4000240000203F000020B0726891ED7C054036
:100E50001C00002046000020200000200800002088
:100E60004C00002014000020150000203C0600204B
:100E700010B54148806940F004003F498861084648
:100E8000806940F0100088610120FFF70DFB3B48AE
:100E9000006820F00F00394908600846006840F0FB
:100EA0000800086035480C30006820F00100334924
:100EB0000C3108603148001D006820F070402F4957
:100EC000091D08600846006840F0004008602B4893
:100ED0000C30006840F4004028490C310860284874
:100EE000006820F47000264908600846006840F455
:100EF000000008600846C06840F02000C86010BDCF
:100F000010B5044614B101201E4908701D48007830
:100F100008B31D48006838B11C48006820B11B4860
:100F20003C380068012816D10A20FFF7ADF90020EF
:100F3000144908701448006808B9012010BD13480E
:100F4000006808B90220F9E710483C380068012819
:100F500010D10320F2E70C48006801280AD10B48A1
:100F60000068012806D109483C38006810B9012002
:100F7000044908700020E1E7001002400008014029
:100F80000010014032000020140122423C012142A5
:100F90000C48806940F020000A4988610A480068CE
:100FA00020F47060084908600846006840F440700A
:100FB000086005480C30006840F0040002490C311C
:100FC000086070470010024000140140322000BF4A
:100FD0000100A0F10102D0B2FAD1704700B5B648C5
:100FE000806940F00400B4498861B448006820F486
:100FF0007000B24908600846006840F4401008607C
:10100000AE480C30006840F02000AC490C3108605C
:10101000AA48006820F47020A849086008460068C3
:1010200040F440300860A5480C30006840F01000E3
:10103000A2490C3108600120A1490860FFF7C6FFF2
:101040000120A049C1F89001FFF7C0FF00BD00B525
:101050009A48006820F470209849086008460068A3
:1010600040F44030086001209549091F0860FFF7EF
:10107000ADFF01209349C1F89401FFF7A7FF0020BD
:101080008F49091F0860FFF7A1FF00BD00B58B481D
:10109000006820F47020894908600846006840F420
:1010A0004030086000208649091F0860FFF78EFF66
:1010B00001208449C1F89401FFF788FF012080498D
:1010C000091F0860FFF782FF00BD00B500237B48C1
:1010D000006820F47020794908600846006840F4F0
:1010E00000200860012076490860FFF76FFF07E0E5
:1010F000581CC3B2FE2B03DDFFF7C8FF012000BD63
:101100006F48843800680028F2D16D490860FFF705
:101110005DFF0020F3E700B56848006820F4702008
:10112000664908600846006840F4403008600020C6
:101130006349091F0860FFF749FF01206149C1F8B1
:101140009401FFF743FF00205D490860FFF73EFF71
:1011500000BD00B55948006820F470205749086068
:101160000846006840F44030086001205449091FD7
:101170000860FFF72BFF01205249C1F89401FFF7E7
:1011800025FF00204E490860FFF720FF00BD10B585
:1011900003464A48006820F4702048490860084621
:1011A000006840F440300860002413E00020444907
:1011B0000860FFF70BFFD8094249C1F890015806B3
:1011C000030EFFF703FF01203D490860FFF7FEFE15
:1011D000601CC4B2082CE9DB002039490860FFF725
:1011E000F5FE01203749C1F89001FFF7EFFE10BD71
:1011F00010B53248006820F4702030490860084675
:10120000006840F40020086000202D490860FFF7C6
:10121000DDFE002411E0012029490860FFF7D6FE19
:101220002848D0F8100140EA4300C3B20020244906
:101230000860FFF7CBFE601CC4B2082CEBDBFFF7A5
:10124000C5FE184610BD70B506460C461546FFF79C
:10125000FEFE3046FFF79BFFFFF737FF2046FFF704
:1012600096FFFFF732FF2846FFF791FFFFF72DFFAC
:10127000FFF70CFF70BD70B504460D46FFF7E7FEA3
:101280002046FFF784FFFFF720FF2846FFF77FFF88
:10129000FFF71BFFFFF7DBFE611CC8B2FFF777FF0C
:1012A000FFF713FFFFF7A4FF0646FFF752FFFFF714
:1012B000EDFE304670BD0000001002400008014005
:1012C00094012142000021424FF48071FE4A516195
:1012D00049005161FD490860802151611161890017
:1012E000116170474FF48071F74A116149005161F3
:1012F000F6490860802151611161890011617047D0
:1013000010B54FF08830F1490C390860091D0860AC
:101310000020EE4908608815EB49086140004861EB
:1013200040204861EA48808848F68911884202D105
:101330000220FEF78DFFE548001F006884B24020C0
:10134000E1490861C00008614FF03330DF490C39D2
:101350000860091D08604FF6FF70DC4908602046F0
:1013600010BD10B504460B462046FFF7ADFF4FF405
:101370008070D549086140004861D44803608020EE
:10138000486108618000086110BD10B50446204620
:10139000FFF79AFFFFF7B4FF10BD00B5CC490889ED
:1013A000FFF792FF00BD4FF48071C74A11614900F9
:1013B0005161C64908608021516111618900116144
:1013C000704730B5014601F01F04C1F34513CA0A46
:1013D000E50205EB43151544A8B230BD30B504460F
:1013E0000D46BB48808849F24131884205D0B84853
:1013F000808845F21031884240D1B5494889FFF7CD
:1014000063FF4FF48070B0490861400048612012CA
:10141000AE4908608020AC494861086180000861DD
:101420004010086140004861E0B2A849086080208F
:10143000A5494861086180000861A5498889FFF7CE
:1014400043FF4FF48070A0490861400048612812B2
:101450009E49086080209C494861086180000861BD
:101460004010086140004861E8B298490860802057
:1014700095494861086180000861B9E09448808816
:1014800046F60401884249D191488079012804D167
:101490008F480088401E001B84B28D494889FFF7A1
:1014A00013FF4FF4807088490861400048612012A2
:1014B000864908608020844948610861800008618D
:1014C0004010086140004861E0B280490860802017
:1014D0007D4948610861800008617D498889FFF77E
:1014E000F3FE4FF48070784908614000486128128B
:1014F000764908608020744948610861800008616D
:101500004010086140004861E8B2704908608020DE
:101510006D49486108618000086169E06C48808815
:1015200045F21051884250D169494889FFF7CCFEF5
:101530004FF480706449086140004861201263499B
:101540000860802060494861086180000861604946
:101550004989491C88B2FFF7B7FE4FF480705A4999
:10156000086140004861E0B258490860802056494F
:10157000486108618000086155498889FFF7A4FE29
:101580004FF48070504908614000486128124F496B
:10159000086080204C4948610861800008614C491E
:1015A0008989491C88B2FFF78FFE4FF48070464945
:1015B000086140004861E8B244490860802042491F
:1015C000486108618000086112E041488079012883
:1015D00004D13F480088401E001B84B23C49488922
:1015E0002146FFF7BEFE3A4988892946FFF7B9FE32
:1015F00030BD2DE9F04105460E4635480088A84229
:1016000003DD33484088B04202DC0020BDE8F081B1
:1016100031462846FFF7E2FE2D48808849F24131E5
:1016200088420BD02A48808846F60401884205D0BB
:101630002748808845F21031884203D12E20FFF7D9
:1016400043FE0DE02248808845F21051884204D1C3
:101650004FF43850FFF738FE02E02220FFF734FE47
:101660004FF0883019490C390860091D08604FF6A1
:10167000FF701649086088151349086140004861E9
:10168000402048610120FEF7E3FD40200E4908613B
:1016900048610120FEF7DCFD0C48001F006884B2A1
:1016A0004020094908610A48808849F2413188424E
:1016B00012D00748808845F2103188420CD0044887
:1016C000808845F2105105E0001001400C0C0140EB
:1016D0003C0E002088420ED14020FE494861FE4861
:1016E00000681FFA80F840200861E7B24FF6FF70EB
:1016F00000EA07270CE0F948808846F60401884292
:1017000006D14020F34948610861F348006884B27B
:101710004FF40070EF4908614FF03330EE4908395B
:101720000860091D08604FF6FF70EB49091D08604D
:10173000EA48808849F22531884216D0E7488088F7
:1017400044F23551884210D0E4488088091F88420D
:101750000BD0E248808848F68911884205D0DF48DE
:1017600080884BF20551884201D120464EE7DB4884
:10177000808849F2413188420BD0D848808845F2B0
:101780001031884205D0D548808845F210518842F2
:1017900007D1E012C002B91240EA411040EAE82045
:1017A00034E72046FFF70DFE30E700B5CB488088D0
:1017B00049F2413188420BD0C848808846F604017E
:1017C000884205D0C548808845F21031884203D14F
:1017D0002920FFF779FD0FE0C048808845F21051BD
:1017E000884204D14FF42450FFF76EFD04E040F22C
:1017F00073110720FFF7B5FD00BD00B5B74880881D
:1018000049F2413188420BD0B448808846F6040141
:10181000884205D0B148808845F21031884203D112
:101820002820FFF751FD0EE0AC48808845F21051AA
:10183000884204D14FF42050FFF746FD03E0002119
:101840000720FFF78EFD00BDF0B5054600240027F8
:10185000A248807901281ED1A048808846F604015C
:10186000884218D0082D15D2DFE805F00406080AD2
:101870000C0E101206250DE007250BE0042509E0EB
:10188000052507E0012505E0002503E0032501E02B
:10189000022500BF00BF9148808849F2413188424B
:1018A00011D08E48808846F6040188420BD08B48C0
:1018B000808845F21031884205D08848808845F2FA
:1018C000105188427ED1082D1CD2DFE805F00406B5
:1018D000090C0F12151800BF14E044F0800411E049
:1018E00044F040040EE044F0C0040BE044F0200457
:1018F00008E044F0600405E044F0A00402E044F095
:10190000E00400BF00BF7548808845F2105188424E
:1019100002D14FF4585700E036277048808845F2CE
:101920001031884207D06D48808845F210518842B6
:1019300001D044F008046948808846F604018842D2
:1019400001D144F0020421463846FFF70AFD04F0B5
:10195000200018B96148807901280DD15F480088BE
:101960005E494988884214DA5C48068840885B49A9
:101970000880084646800CE0584800885749498846
:10198000884206DD55480688408854490880084644
:1019900046805248808845F2105188427ED14F4996
:1019A0004889FFF791FC4FF480704A490861400074
:1019B000486100204849091D086080204549486168
:1019C000086100E038E18000086144494989491C08
:1019D00088B2FFF779FC4FF480703E4908614000FF
:1019E000486100203C49091D086080203949486150
:1019F00008618000086139494989891C88B2FFF76C
:101A000063FC4FF4807033490861400048613348FB
:101A10000088401E00123049091D086080202D49B1
:101A200048610861800008612C494989C91C88B255
:101A3000FFF74AFC4FF48070264908614000486176
:101A400026480078401EC0B22349091D0860802046
:101A50002049486108618000086120498889FFF7B2
:101A600033FC4FF480701B4908614000486100203E
:101A70001949091D086080201649486108618000E5
:101A8000086116498989491C88B2FFF71DFC4FF48B
:101A90008070104908614000486100E043E0002088
:101AA0000D49091D086080200A49486108618000CD
:101AB00008610A498989891C88B2FFF705FC4FF43F
:101AC0008070044908614000486104484088401E15
:101AD000001205E000100140080C01403C0E0020FF
:101AE000FE49091D08608020FD49486108618000A9
:101AF0000861FC498989C91C88B2FFF7E5FB4FF4EE
:101B00008070F749086140004861F6488078401EBF
:101B1000C0B2F249091D08608020F149486108619E
:101B200080000861BAE0EF494889FFF7CDFB4FF428
:101B30008070EB490861400048610020E749091DB9
:101B400008608020E6494861086180000861401013
:101B50000861400048610020E049091D08608020BC
:101B6000DF49486108618000086140100861400059
:101B70004861DC480088401E0012D849091D0860F1
:101B80008020D749486108618000086140100861E1
:101B900040004861D3480078401EC0B2CF49091DBB
:101BA00008608020CE494861086180000861CD4905
:101BB0008889FFF789FB4FF48070C94908614000AC
:101BC00048610020C549091D08608020C44948615A
:101BD00008618000086140100861400048610020F1
:101BE000BE49091D08608020BD4948610861800028
:101BF00008614010086140004861BA484088401EB2
:101C00000012B649091D08608020B5494861086185
:101C1000800008614010086140004861B148807848
:101C2000401EC0B2AD49091D08608020AC49486122
:101C300008618000086131E0082D1CD2DFE805F062
:101C400004070A0D0F12151844F0300413E044F095
:101C5000100410E044F020040DE000BF0BE044F05D
:101C6000380408E044F0280405E044F0180402E0D9
:101C700044F0080400BF00BF9A48808848F68911E4
:101C8000884204D1112746F24000044302E00327B2
:101C900044F4805421463846FFF763FBF0BD30B56D
:101CA00004460D4629462046FFF798FBFFF775FBD3
:101CB0004FF480708A490861400048618A48008872
:101CC0008649091D086080208549486108618000B7
:101CD000086130BD70B504460D46164681488088BF
:101CE00049F24131884205D07E48808845F2103162
:101CF000884244D17B494889FFF7E6FA4FF4807067
:101D0000774908614000486120127449091D086044
:101D100080207349486108618000086140100861B3
:101D200040004861E0B26D49091D086080206C499F
:101D300048610861800008616A498889FFF7C4FA30
:101D40004FF4807066490861400048612812634979
:101D5000091D0860802062494861086180000861AF
:101D60004010086140004861E8B25C49091D086004
:101D700080205B494861086180000861C9E05948DA
:101D8000808845F21051884254D156494889FFF75E
:101D90009BFA4FF48070524908614000486120125C
:101DA0004E49091D086080204D4948610861800046
:101DB00008614C494989491C88B2FFF785FA4FF4FC
:101DC00080704749086140004861E0B24349091DFD
:101DD00008608020424948610861800008614149EB
:101DE0008889FFF771FA4FF480703D49086140001F
:101DF000486128123949091D086080203849486126
:101E000008618000086137498989491C88B2FFF759
:101E10005BFA4FF480703249086140004861E8B2D3
:101E20002E49091D086080202D4948610861800005
:101E300008616EE02B48808846F60401884255D13F
:101E400028488079012804D126480088401E001BBC
:101E500084B224494889FFF737FA4FF4807020494B
:101E600008614000486120121C49091D086080205B
:101E70001B4948610861800008614010086140000A
:101E80004861E0B21549091D086080201449486185
:101E900008618000086113498889FFF715FA4FF43B
:101EA00080700F4908614000486128120B49091DE4
:101EB000086080200A49486108618000086140107C
:101EC000086140004861E8B20449091D08608020AB
:101ED000034948610861800008611AE0080C01406C
:101EE000001001403C0E002034000020FE488079A4
:101EF000012804D1FC480088401E001B84B2FA4926
:101F000048892146FFF72DFAF74988892946FFF7C6
:101F100028FA4FF48070F549486140004861F24862
:101F20000089F34908608020F04948610861800019
:101F300008614010086140004861ED48066080205B
:101F4000486108618000086170BD10B50446002C2E
:101F500060D1E5498871F02008804FF4A070488076
:101F60000846808849F2413188420BD0DE4880889B
:101F700046F60401884205D0DB48808845F21031DE
:101F800088421AD12C20D84908812A2048812B2048
:101F900088810846808846F60401884205D0D248E8
:101FA000808845F21031884206D14FF4A070CE49A6
:101FB00008804FF4F070488095E0CB48808848F660
:101FC0008911884207D12220C74908814E204881C3
:101FD0004F20888187E0C448808845F210518842AC
:101FE00010D14FF43050C04908814FF42850488137
:101FF0004FF42C5088814FF4F07008804FF44870F3
:10200000488070E02220B8490881202048812120A2
:10201000888168E00120B44988714FF4A07008807D
:10202000F02048800846808849F24131884205D036
:10203000AD48808845F21031884207D12C20AA494A
:1020400008812A2048812B20888139E0A648808891
:1020500046F60401884207D12C20A34908812B2091
:1020600048812A2088812BE09F48808848F6891182
:10207000884207D122209C4908814F2048814E2068
:1020800088811DE09848808845F21051884210D11F
:102090004FF43050944908814FF4285048814FF450
:1020A0002C5088814FF4487008804FF4F0704880BD
:1020B00006E022208C490881212048812020888147
:1020C0008948808846F60401884205D08648808881
:1020D00045F21031884206D14FF4F07082490880F1
:1020E0004FF4A07048800020FFF7AEFB10BD2DE933
:1020F000FF4F04460D4616461F46A019401E86B2E5
:10210000E819401E87B27848808849F241318842F8
:102110000BD07548808845F21031884205D072484E
:10212000808846F60401884275D16F494889FFF7D7
:10213000CBF84FF480706D4908614000486120126F
:102140006B49086080206949486108618000086126
:102150004010086140004861E0B265490860802095
:1021600062494861086180000861401008614000D0
:10217000486130125E49086080205C49486108610E
:10218000800008614010086140004861F0B2584981
:102190000860802055494861086180000861524903
:1021A0008889FFF791F84FF480705049086140002A
:1021B000486128124E49086080204C4948610861F6
:1021C000800008614010086140004861E8B2484959
:1021D000086080204549486108618000086140101E
:1021E00008614000486138124149086080203F4939
:1021F0004861086180000861401008614000486142
:10220000F8B23B4908608020384948610861800085
:102210000861FAE0FFE73448808845F210518842AF
:1022200068D131494889FFF74FF84FF480702F4942
:1022300008614000486120122D49086080202B4928
:10224000486108618000086127494989491C88B2B2
:10225000FFF73AF84FF48070244908614000486164
:10226000E0B223490860802020494861086180006D
:1022700008611D494989891C88B2FFF725F84FF488
:1022800080701A490861400048613012184908609E
:102290008020164948610861800008611249498917
:1022A000C91C88B2FFF710F84FF480700F4908611D
:1022B00040004861F0B20E49086080200B49486137
:1022C00008618000086108498889FEF7FDFF4FF426
:1022D000807006490861400048612812044908607E
:1022E00080200249486106E03C0E002000100140B9
:1022F0000C0C014042E0086180000861FE498989B8
:10230000491C88B2FEF7E0FF4FF48070FB4908617A
:1023100040004861E8B2FA4908608020F749486106
:10232000086180000861F4498989891C88B2FEF738
:10233000CBFF4FF48070F1490861400048613812CA
:10234000EF4908608020ED4948610861800008611C
:10235000E9498989C91C88B2FEF7B6FF4FF480703D
:10236000E649086140004861F8B2E549086080200C
:10237000E249486108618000086146E0DE488079F2
:1023800001280ED1A846B946DB480088801B401EB4
:1023900080B20190D8480088001B401E80B2009097
:1023A00003E0A046B14601950097D348808848F6DF
:1023B000891188420DD14FF0440A4FF0440B48EA8E
:1023C00009201FFA80F8C14645200390462002905C
:1023D00007E04FF0500A4FF0510B5220039053206A
:1023E000029041465046FEF7BCFF49465846FEF76C
:1023F000B8FF01990398FEF7B4FF00990298FEF721
:10240000B0FF29462046FEF7E9FFBDE8FF8F70B513
:1024100004460026B848058840884543B648808869
:1024200046F60401884216D1B3488079012812D1BA
:102430000020B14988712A2048812B208881002101
:102440000846FEF7CBFF0120AB4988712B2048815D
:102450002A20888103E000210846FEF7BFFFFEF72F
:102460009CFF00260DE04FF48070A44908614000F5
:102470004861A348046080204861086180000861C9
:10248000761CAE42EFD370BD10B59E48806940F017
:1024900008009C4988610846806940F01000886106
:1024A0000846806940F0010088610120FDF7FCFFCB
:1024B000924840686FF30B009049486008464068B6
:1024C00040F2333108438D4948600846006820F0E7
:1024D0007F4008600846006840F04C50086008469D
:1024E000C06840F4F860C8604FF033308449083960
:1024F0000860091F08604FF6FF70814908603220AC
:10250000FDF7C2FE01210020FEF72BFF3220FDF770
:10251000BBFE0020FEF739FF774988800846808897
:10252000FF280ADB084680884FF6FF71884204D0F6
:1025300071488088B0F5134F7ED1D320FEF7C4FEDA
:10254000FEF7DEFEFEF7DCFEFEF7DAFE6A49888063
:10255000084680884FF6FF7101EA002066498880AE
:10256000FEF7CEFE6449898808436349888008469F
:10257000808849F2413188426CD0BF20FEF7A4FE2A
:10258000FEF7BEFEFEF7BCFEFEF7BAFEFEF7B8FE93
:1025900059498880084680884FF6FF7101EA00207B
:1025A00055498880FEF7ACFE534989880843524953
:1025B00088800846808846F6040188424AD0D420A4
:1025C000FEF782FEFEF79CFEFEF79AFEFEF798FEEF
:1025D00049498880084680884FF6FF7101EA00204B
:1025E00045498880FEF78CFE434989880843424963
:1025F00088800846808845F2103188422AD04FF4FE
:102600005A40FEF761FEFEF77BFE4FF45B40FEF79B
:102610005BFEFEF775FE38498880084680884FF6D5
:10262000FF7101EA0020344988804FF45C40FEF7D6
:102630004BFEFEF765FE00E00CE02F498988084359
:102640002D49888008468088B0F5004F02D145F2B8
:1026500010508880284881882BA001F079F82648FE
:10266000808849F2413188427ED1CF20FEF72CFE8E
:102670000020FEF737FEC120FEF734FE3020FEF7C3
:1026800031FEED20FEF720FE6420FEF72BFE032036
:10269000FEF728FE1220FEF725FE8120FEF722FE1F
:1026A000E820FEF711FE8520FEF71CFE1020FEF745
:1026B00019FE7A20FEF716FECB20FEF705FE392024
:1026C000FEF710FE2C20FEF70DFE0020FEF70AFE9E
:1026D0003420FEF707FE0220FEF704FEF720FEF787
:1026E000F3FD2020FEF7FEFDEA20FEF7EDFD0020C1
:1026F000FEF7F8FD00200FE03C0E00200010014026
:102700000C0C014000100240204C43442049443A44
:1027100025780D0A00000000FEF7E4FDC020FEF75A
:10272000D3FD1B20FEF7DEFDC120FEF7CDFD01200D
:10273000FEF7D8FDC520FEF7C7FD3020FEF7D2FD1D
:102740003020FEF7CFFDC720FEF7BEFDB720FEF715
:10275000C9FD3620FEF7B8FD4820FEF7C3FD3A203C
:10276000FEF7B2FD552000E0A6E0FEF7BBFDB1206C
:10277000FEF7AAFD0020FEF7B5FD1A20FEF7B2FD18
:10278000B620FEF7A1FD0A20FEF7ACFDA220FEF761
:10279000A9FDF220FEF798FD0020FEF7A3FD2620FC
:1027A000FEF792FD0120FEF79DFDE020FEF78CFD77
:1027B0000F20FEF797FD2A20FEF794FD2820FEF754
:1027C00091FD0820FEF78EFD0E20FEF78BFD082000
:1027D000FEF788FD5420FEF785FDA920FEF782FD57
:1027E0004320FEF77FFD0A20FEF77CFD0F20FEF759
:1027F00079FD0020FEF776FD0020FEF773FD002036
:10280000FEF770FD0020FEF76DFDE120FEF75CFD98
:102810000020FEF767FD1520FEF764FD1720FEF788
:1028200061FD0720FEF75EFD1120FEF75BFD06202F
:10283000FEF758FD2B20FEF755FD5620FEF752FD02
:102840003C20FEF74FFD0520FEF74CFD1020FEF763
:1028500049FD0F20FEF746FD3F20FEF743FD3F20D8
:10286000FEF740FD0F20FEF73DFD2B20FEF72CFD6F
:102870000020FEF737FD0020FEF734FD0120FEF7B3
:1028800031FD3F20FEF72EFD2A20FEF71DFD002022
:10289000FEF728FD0020FEF725FD0020FEF722FDB3
:1028A000EF20FEF71FFD1120FEF70EFD7820FDF74B
:1028B000EBFC2920FEF708FD0120FFF746FB012075
:1028C000FD4908604FF6FF70FFF7A1FD10BD2DE92F
:1028D000FC4F05460E4617469846DDF82C90002022
:1028E0000190F648808846F60401884229D1F348D1
:1028F0008079012825D1AB463546F0480088C01BB9
:10290000401E86B24746ED480088A0EB0B00401EF3
:102910001FFA80F80020E94988712A2048812B207D
:10292000888143463A4631462846CDF80090FFF765
:10293000CEFF0120E14988712B2048812A2088811F
:1029400027E0781B401C80B2019034461FE02146EE
:102950002846FEF743FDFEF720FD4FF0000A11E088
:102960004FF48070D649086140004861D548C0F8EE
:102970000090802048610861800008610AF1010030
:102980001FFA80FA01988245EADB601C84B2444554
:10299000DDDDBDE8FC8F2DE9F84F07460D4690467A
:1029A0009946DDF828B0A8EB0700401C1FFA80FA12
:1029B000A9EB0500401C80B20090002420E02819FB
:1029C00081B23846FEF70AFDFEF7E7FC002613E069
:1029D0004FF48070BA4908614000486104FB0A6006
:1029E0003BF81000B74908608020B549486108618C
:1029F00080000861701C86B25645E9DB601C84B219
:102A000000988442DBDBBDE8F88F2DE9FF4F84B0EE
:102A100081468A460020039002900698A0EB0905A3
:102A20000798A0EB0A06CDF80490CDF800A0002D81
:102A300001DD012705E00DB9002702E04FF0FF3767
:102A40006D42002E02DD4FF0010806E016B94FF08E
:102A5000000802E04FF0FF387642B54201DD2C4617
:102A600000E034464FF0000B21E0009A91B2019A49
:102A700090B2FFF714F90398284403900298304469
:102A800002900398A04205DD0398001B0390019873
:102A9000384401900298A04205DD0298001B029084
:102AA0000098404400900BF101001FFA80FB601C6D
:102AB0008345DADD08B0BDE8F08FF0B504460D4679
:102AC00016461F462B46324629462046FFF79DFFF5
:102AD0003B46224629462046FFF797FF3B463246B3
:102AE00039462046FFF791FF3B463246294630469D
:102AF000FFF78BFFF0BD2DE9F04306460F469046E9
:102B0000002445460320A0EB480948E03A1B91B257
:102B1000721B90B2FFF7C3F83A1B91B2721990B2D0
:102B2000FFF7BDF87A1991B2321B90B2FFF7B7F8F0
:102B30003A1B91B2721B90B2FFF7B1F87A1B91B2B7
:102B4000321B90B2FFF7ABF83A1991B2721990B2FA
:102B5000FFF7A5F87A1B91B2321990B2FFF79FF8F0
:102B60007A1991B2321990B2FFF799F83A1991B2E5
:102B7000721B90B2FFF793F8641CB9F1000F03DAEF
:102B8000A000801D814404E0601B80000A30814465
:102B90006D1E7A1991B2321990B2FFF780F8AC42EB
:102BA000B4DDBDE8F0832DE9F84F074688461646A8
:102BB0001C46C3462046E31704EB5373DB10214643
:102BC0004FEAE47C04EB5C7C4FEAEC0CA4EBCC0C0D
:102BD000BCF1000F02D04FF0010C01E04FF0000CEF
:102BE0006344224604EBD27C4FEA6C0C03FB0CF3EB
:102BF000DBB20093A6F12000C6B2002556E00C2CF3
:102C000007D106EB4600304901EB800010F8059033
:102C100013E0102C05D12D4800EB061010F805909C
:102C20000BE0182C07D106EBC600294901EB800008
:102C300010F8059001E0BDE8F88F4FF0000A2FE092
:102C400009F0800030B12348028841463846FFF73A
:102C500041F807E00A9828B91F48028841463846DB
:102C6000FFF738F84FEA49604FEA106908F10100B0
:102C70001FFA80F811480088B84200DCDBE7A8EBB7
:102C80000B00A04208D1D846781C87B20B480088B8
:102C9000B84200DCCFE706E00AF1010000F0FF0ACD
:102CA000BAF1080FCCDB00BF681CC5B200988542A2
:102CB000A5DB00BFBFE70000A80122423C0E0020B8
:102CC000001001400C0C01402E5D0008A2610008BC
:102CD00092670008340000203600002010B502463C
:102CE000012000E050430B00A1F10104E1B2F9D151
:102CF00010BD2DE9FF4F81B0074691461E460E9D3F
:102D00004FF0000A002439E0301B401EC1B20A20F7
:102D1000FFF7E4FFB9FBF0F00A21B0FBF1F201FB91
:102D20001208BAF1000F16D1701EA04213DDB8F1DF
:102D3000000F0ED10020AB4605EBDB71491001FB03
:102D40000471009088B22B4620220299FFF72BFFD6
:102D500012E04FF0010A0020AB4605EBDB71491091
:102D600001FB0471009088B208F13001CAB22B4611
:102D70000299FFF718FF00BF601CC4B2B442C3DB66
:102D800005B0BDE8F08F2DE9FF4F82B006469246B0
:102D90001F46DDE90F480020019000254DE0781B1B
:102DA000401EC1B20A20FFF799FFBAFBF0F00A21DA
:102DB000B0FBF1F201FB1209019850BB781EA8424A
:102DC00027DDB9F1000F22D108F0800078B108F0BA
:102DD0000100A34604EBDB71491001FB0561009083
:102DE00088B2234630220399FFF7DDFE0EE008F09B
:102DF0000100A34604EBDB71491001FB0561009063
:102E000088B2234620220399FFF7CDFE13E001206C
:102E1000019008F00100A34604EBDB71491001FBAF
:102E20000561009088B209F13001CAB223460399C6
:102E3000FFF7B9FE00BF681CC5B2BD42AFDB06B0EC
:102E4000BDE8F08F2DE9F84704460D4690469946B7
:102E5000DDE9096704F0FF0A08EB04001FFA80F8B7
:102E600009EB05001FFA80F916E0444502DB5446E1
:102E7000A81985B24D4500DB14E0002000903A7897
:102E8000334629462046FFF78EFE304606EBD071CA
:102E900004EB61018CB27F1C38787E2802DC387824
:102EA0002028E2DA00BFBDE8F887000062488069A8
:102EB00040F00400604988616048006820F0F0003C
:102EC0005E4908605C48806940F400705A49886136
:102ED0000846C06840F40070C8600846C06820F426
:102EE0000070C8600846406820F4404048600846CA
:102EF000406840F40040486051480068514908402B
:102F00004F4908600846006808600846006820F4D9
:102F100080700860081D006820F00200091D08602C
:102F20000846006820F4602008600846006840F405
:102F3000602008600846006840F480100860084679
:102F4000006820F4006008603D482830006820F4E4
:102F500070003B492831086008460068086038481E
:102F60000C30006820F0380035490C310860084604
:102F7000006840F0380008603148001D006840F0EB
:102F800001002F49091D08600846006840F008004C
:102F9000086000BF2A48001D006800F008000028F3
:102FA000F8D12748001D006840F004002449091D9D
:102FB000086000BF2248001D006800F004000028DF
:102FC000F8D1704701461E483030006820F01F00DD
:102FD0001B4A3032106010460068084310601848E1
:102FE000001D006840F48000154A121D106000BFEB
:102FF0001348001F006800F002000028F8D01048B5
:103000004830006880B270472DE9F04107460C4611
:103010000025002608E03846FFF7D4FF05440520C8
:10302000FDF732F9701CC6B2A642F4DBB5FBF4F032
:1030300080B2BDE8F08100000010024000080140AD
:1030400004240140FFFFF0002DE9F05F05460E4625
:103050006248806940F010006049886160484068BB
:1030600020F47F405E4948600846406840F40B40C9
:1030700048605A48C06940F400205849C861084671
:10308000006940F4002008610846006920F400202F
:103090000861300102F0A8F98146524905FB01F0B0
:1030A00002F0A2F98246494602F088F807463846FF
:1030B00002F062F984B2204602F096F9834639465E
:1030C00002F072FA82464FF0834102F0A1F9814684
:1030D00002F052F980464FF6FF7000EA041404EB48
:1030E000080084B240480480001D008842F20C01B0
:1030F00008433D49091D08800846008840F4807057
:1031000008800846008840F020000880022334220E
:1031100003210846FDF7F0F8BDE8F09F3248083873
:10312000008800F0200000B970472F48001F008879
:103130002E492F4A1278885408462D490978405C58
:103140002C49097808442B4908702948007848B967
:10315000264827490978405CAB2803D1012024493F
:10316000087039E022480078012809D11F48204919
:103170000978405CCD2803D102201D4908702BE05E
:103180001B480078022809DB19480078032805DA73
:1031900017480078401C164908701DE01448007854
:1031A000032814D1114812490978415C104A127859
:1031B000805C104A1278101A814208D101200E4911
:1031C000087000200B4908700949087004E00020CD
:1031D000074908700749087000BFA5E700100240C2
:1031E0000010014040420F00084C00403800002011
:1031F0003D0000203E0000203C0000202DE9FC5F47
:10320000002000900120264908600A20FDF73CF8C4
:1032100000202449C1F894010A20FDF735F8012067
:103220001F4908600A20FDF72FF8FDF710FF002066
:10323000FDF7ADFFFDF749FF0720FDF7A8FFFDF7FC
:1032400044FFFDF704FF0120FDF7A1FFFDF73DFF5F
:10325000FDF7CEFF8246FDF75EFFFDF7C9FF83460F
:10326000FDF759FFFDF7C4FF0190FDF772FFFDF771
:103270000DFF0AEB0B2001F09CFB80460A4A0B4B2A
:1032800001F0FEFB06464FF06632094B01F01EFED0
:10329000044601F019F900900098BDE8FC9F000079
:1032A00094012142000021427B14AE47E17A943F11
:1032B000661271402DE9F05F05460E46534880695D
:1032C00040F00400514988615148006820F47F4073
:1032D0004F4908600846006840F40B4008604B48BE
:1032E000C06940F400304949C8610846006940F4AB
:1032F000003008610846006920F4003008613001A0
:1033000002F072F88146434905FB01F002F06CF8C7
:103310008246494601F052FF0746384602F02CF833
:1033200084B2204602F060F88346394602F03CF948
:1033300082464FF0834102F06BF8814602F01CF8A0
:1033400080464FF6FF7000EA041404EB080084B2D4
:1033500031480480001D008842F20C0108432E49C8
:10336000091D08800846008840F4807008800846DF
:10337000008840F0200008800223262203211846FE
:10338000FCF7BAFFBDE8F09F23480838008800F03A
:10339000200000B970472048001F00881F49204ABC
:1033A000127888541E48007848B908461C490978A4
:1033B000405CAA2803D101201949087023E018486D
:1033C0000078012809DB16480078062805DA144839
:1033D0000078401C1249087015E011480078062852
:1033E0000CD10E480E490978405CFF2806D1012017
:1033F0000C49087000200A49087004E000200849C0
:1034000008700949087000BFC4E7000000100240BE
:103410000008014040420F00084400403F000020E7
:10342000470000204600002048000020FCB504466C
:103430000D460021AB268DF80060CD268DF8016089
:103440008DF8025016128DF80360D6B28DF8046024
:10345000002B34D0002011E01DF800600E44F1B2C2
:103460001DF80060954F3E8000BF944E361F368891
:1034700006F04006002EF8D0461CB0B20528EBDB63
:1034800000200FE0265C0E44F1B2265C8B4F3E809C
:1034900000BF8A4E361F368806F04006002EF8D050
:1034A000461CB0B29042EDDB844E318000BF834EAB
:1034B000361F368806F04006002EF8D022E00020A5
:1034C0000DE01DF800607D4F3E8000BF7B4E361F33
:1034D000368806F04006002EF8D0461CB0B205280B
:1034E000EFDB00200CE0265C744F3E8000BF734E83
:1034F000361F368806F04006002EF8D0461CB0B2C3
:103500009042F0DBFCBDFCB504460D460021AB2625
:103510008DF80060CD268DF801608DF802501612EE
:103520008DF80360D6B28DF80460002B34D00020F3
:1035300011E01DF800600E44F1B21DF80060604F0C
:103540003E8000BF5E4E361F368806F04006002ED5
:10355000F8D0461CB0B20528EBDB00200FE0265C5B
:103560000E44F1B2265C564F3E8000BF544E361FCB
:10357000368806F04006002EF8D0461CB0B29042C5
:10358000EDDB4F4E318000BF4D4E361F368806F0C2
:103590004006002EF8D022E000200DE01DF800606B
:1035A000474F3E8000BF464E361F368806F0400625
:1035B000002EF8D0461CB0B20528EFDB00200CE04E
:1035C000265C3F4F3E8000BF3D4E361F368806F0DA
:1035D0004006002EF8D0461CB0B29042F0DBFCBD95
:1035E000FCB504460D460021AB268DF80060CD26C3
:1035F0008DF801608DF8025016128DF80360D6B276
:103600008DF80460002B34D0002011E01DF800601C
:103610000E44F1B21DF800602A4F3E8000BF294ED3
:10362000361F368806F04006002EF8D0461CB0B291
:103630000528EBDB00200FE0265C0E44F1B2265C8F
:10364000204F3E8000BF1F4E361F368806F04006D2
:10365000002EF8D0461CB0B29042EDDB194E3180FE
:1036600000BF184E361F368806F04006002EF8D0F0
:1036700022E000200DE01DF80060124F3E8000BFE8
:10368000104E361F368806F04006002EF8D0461C35
:10369000B0B20528EFDB00200CE0265C094F3E802D
:1036A00000BF084E361F368806F04006002EF8D0C0
:1036B000461CB0B29042F0DBFCBD00000438014073
:1036C000044400400448004070B50546002403E06F
:1036D000FF202855601C84B2B4F5006FF8DBFDF7BD
:1036E000B6FCA820FDF753FDFDF7EFFC0020FDF729
:1036F0004EFDFDF7EAFCFDF7AAFCA120FDF747FD12
:10370000FDF7E3FC002406E0FDF772FD2855FDF708
:1037100002FD601C84B2B4F5006FF5DBFDF719FD06
:10372000FDF7B4FC70BD50B502460B4692F8D44785
:10373000002009E0002104E001EBC006965D5E5523
:10374000491C0629F8DB401CA042F3DB50BD704742
:103750000FB4044910B503AA029800F0CDF810BCCC
:103760005DF814FB040000202DE9F0410E460446EC
:10377000002020622046E168884730B3252805D024
:10378000D4E901219047206A401CF2E7E168204615
:1037900000278847050018D0A5F14100192802D854
:1037A00020354FF400673246294620462760FCF753
:1037B000F9FC40B1012804D0F61D26F007060836B2
:1037C000D8E7361DD6E72846DAE7206ABDE8F0815B
:1037D00070B504460D4621461068AFF3008021887D
:1037E000090502D50F4A7A4402E00E4A7A440E32A5
:1037F000002104F1240305E000F00F060009965DA6
:103800005E54491C0028F7D120780023000704D516
:10381000702D02D009B1022311322046BDE870405C
:1038200000F011B8043D00007047704770477047C2
:1038300010B500F073F8006810BD10B5044600F034
:103840006DF8046010BD2DE9F0470D46994692468B
:10385000044600F124080168880604D5E06921F0D7
:103860001001216000E00120A84201DD471B00E0BB
:103870000027A1697A1902EB0900081AA0612078D3
:10388000C00602D42046AFF30080002608E0D4E949
:1038900001211AF806009047206A401C761C20621D
:1038A0004E45F4DB2078C0060AD52046AFF30080F1
:1038B00006E0D4E9012130209047206A401C2062B4
:1038C000381EA7F10107F4DC07E0D4E9012118F85C
:1038D00005009047206A401C2062281EA5F10105C2
:1038E000F3DC2046AFF300802078000602D50220EA
:1038F000BDE8F0870120FBE7074B70B50D467B4420
:1039000000F015F80446284600F024F810B14FF0F6
:10391000FF3070BD204670BD89CCFFFF0048704766
:103920004C0E002001694A1C02610878704700B5FE
:103930008FB0CDE901310021059105497944CDE9E8
:10394000031011466846FFF70FFF0FB000BD0000DF
:10395000E5FFFFFF007B00F08000704700487047E4
:103960004C0E00207546FFF7F9FFAE46050069468C
:10397000534620F00700854618B020B5FCF73CFC04
:10398000BDE820404FF000064FF000074FF0000860
:103990004FF0000B21F00701AC46ACE8C009ACE8E1
:1039A000C009ACE8C009ACE8C0098D4670470446C0
:1039B000AFF300802046FCF707FC490050EAC12025
:1039C00018BF04204A0D18BF40F0010040F2FF72FA
:1039D000B2EB515F08BF40F00200012808BF05208C
:1039E00070472DE9F0414F1E00EBC7010446D1E9B5
:1039F000000115461E4637F006020DD02A46334612
:103A000001F03EF87F1E04EBC703D3E9002300F06A
:103A10008DFD37F00602F1D1022F25D0042F13D0EF
:103A2000062F18BFBDE8F0812A46334601F028F87A
:103A3000D4E90A2300F07AFD2A46334601F020F843
:103A4000D4E9082300F072FD2A46334601F018F845
:103A5000D4E9062300F06AFD2A46334601F010F847
:103A6000D4E9042300F062FD2A46334601F008F849
:103A7000D4E9022300F05AFD2A46334601F000F84B
:103A8000D4E90023BDE8F04100F050BD024A002017
:103A9000110701F03ABE000001FDFFFF2DE9F04DD6
:103AA00016460F460546020094B01C4621F0004120
:103AB00023F0004014BF4FF0010C4FF0000C0CEB52
:103AC000470CFE4B0CEB03084FEA630CE0452DD38B
:103AD0005FEA060818BF4FF0010808EB4408984455
:103AE000F74B984522D3F74B50EA060C02D09F4281
:103AF00005D14AB914B000201946BDE8F08D002A5E
:103B000008BF4FF0000C01D04FF0010C0CEB470345
:103B100013F5001F0AD8002E14BF4FF0010C4FF010
:103B2000000C0CEB440313F5001F08D914B0324607
:103B3000234628463946BDE8F04D00F0F7BCDFF8D3
:103B400088B34FF0000A002FB8BF584523DADF4B87
:103B50009842A8BF4FF0020A1DDADA4B83421ADC02
:103B6000DB4B03EB2053142B08DDC3F1340C26FA96
:103B70000CF303FA0CFCB4450DD108E05EB9C3F1B7
:103B8000140C20FA0CF303FA0CFC844503D103F067
:103B90000103C3F1020A51EA020321D1002C1FDA0A
:103BA000002F18BFBAF1020F02D0BAF1010F0BD0EB
:103BB0000220FFF742FE14B00022BDE8F04D13468C
:103BC0001046C04900F06EBD0220FFF736FE14B06B
:103BD0002A463B46BDE8F04D0020BA4900F062BDE0
:103BE00033006DD1584525D107F1804010F5801084
:103BF00001BF002A0020B34914B008BFBDE8F08D12
:103C0000B048884207DC002CA1BF1846214614B0FA
:103C1000BDE8F08D07E0002CBFBF184684F00041DE
:103C200014B0BDE8F08DAB497944D1E9000114B07E
:103C3000BDE8F08DDFF88CC2604526D1002C1FDA7C
:103C400019B1594513D1DAB90AE0002A40F0DA82F5
:103C50009D4A394614B0002062F31E01BDE8F08D84
:103C60000020394614B060F31E01BDE8F08D07DA7C
:103C700014B03B46BDE8F04D0020614600F012BD97
:103C800014B010463946BDE8F08D594518DAB4F144
:103C9000804F0DD0A4F10053B3F1FF5310D13B1E60
:103CA0000EDB14B01046BDE8F04D194600F0E6BB3F
:103CB0003B4614B01046BDE8F04D194600F0E0BE9A
:103CC00027F00043A2BBE1B1594538D1002F06DDF2
:103CD000002CA1BF0020594614B0BDE8F08D002F84
:103CE00001DD002C1FDB002F16DA002C14DBBAF1EB
:103CF000010F4FF0000014BF7349774914B0BDE8BD
:103D0000F08DBAF1020F18BF002F0CD0BAF1010FDD
:103D100009D1002F07DA0CE0002FB8BF002C0EDA13
:103D2000BAF1010F05D0002014B00146BDE8F08DB6
:103D300005E014B000204FF00041BDE8F08D4FF0D9
:103D4000010C0CEBE7720D9252EA0A020BD0634AA7
:103D500090427DDD624B634A984216DD8A420EDB5B
:103D6000002C1CDB2CE00120FFF767FD14B00022C3
:103D7000BDE8F04D13461046114600F093BC514883
:103D8000884202DC002C0ADC1AE0914202DA002CA4
:103D900016DA04E04B4B99421EDD002C10DD0220A8
:103DA000FFF74BFD40F2013200204FF0E04101F0FF
:103DB000ACFC454A14B061F31E021146BDE8F08D1B
:103DC0000220FFF73AFDFFF761FE3E4A14B061F3AF
:103DD0001E021146BDE8F08D00222846394601F04A
:103DE00075F8054688466FF0010201F08EFC4FF031
:103DF00055323D4B00F078FF2A46434600F040FE26
:103E000000223A4B00F070FF07468B462A46434695
:103E10001046194600F034FE3A465B4600F030FE8C
:103E200009910C904FF0C042314B2846414600F0BA
:103E300027FE07468B462F4A2D4B09990C9800F018
:103E40001FFECDE901102C4A2C4B2846414600E0CC
:103E500019E000F015FEDDE9013201F037F83A46CD
:103E60005B460591089000F061FB002588463A46C4
:103E70005B46284601F02AF8059B089A00F034FFBB
:103E8000024600F076B90020B1F5801F07DA35222E
:103E90002846194601F039FC05466FF0340000EB66
:103EA0002150A0F2FF300190C1F3130040F07F6178
:103EB00041F0405102911249884223E0FFFF1F0068
:103EC000FFFF0F000000F03F0000F07F00004043C4
:103ED00001FCFFFF743900000000F0FF0000E0412A
:103EE0000000F043FFFFEF3F5555D53F0000E03F96
:103EF0004715F73FFE822B6544DF5DF80BAE543E5D
:103F00008E980300D8BF4FF0000B0EDDFE498142B2
:103F1000C8BF4FF0010B08DC01984FF0000B401CAC
:103F200001900298A0F580100290F8480299784418
:103F300000EBCB000B911090D0E90023284600F055
:103F4000C5FF009010980791D0E9002328460B99EF
:103F500000F0ECFA02460B460020ED4900F0A2FB0F
:103F600005910B46024608900799009800F088FDDD
:103F70000690E848884600277844029900680E9029
:103F80004FF0005040EA610000EB8B4000F500214B
:103F900010980291D0E900230E9800F097FF2A466E
:103FA0000B9B00F0A1FE3A46434600F069FD054632
:103FB0000B9138464146029B0E9A00F061FD079B2B
:103FC000009A00F091FE2A460B9B00F07FFF059BB4
:103FD000089A00F055FD0B911090069A4346104642
:103FE000194600F04DFD05460246CB480B460091B0
:103FF00006217844FFF7F5FC009B2A4602910890C1
:104000001046194600F03CFD029B089A00F038FD6E
:1040100005460591434638461946069A00F086FA49
:104020000B9B109A00F02CFD2A46059B00F07EFAAF
:104030003A464346059108901046194600F020FD87
:104040000022B64B00910C9000F070FA059B089A84
:1040500000F06CFA0D463A46B04B384600F036FF99
:10406000009B0C9A00F032FF059B089A00F03CFE82
:1040700011913A460C902B461046414600F000FD47
:10408000079100904346069A11990C9800F0F8FCAD
:10409000804603912B463A460B99109800F0F0FCAD
:1040A0004246039B00F042FA059180460B460246C9
:1040B0000799009800F03AFA00200F460546079B42
:1040C000009A00F003FF4246059B00F00DFE80467B
:1040D00009914FF06042924B2846394600F0D0FCDF
:1040E000009102908F4A8E4B4046099900F0C8FC1F
:1040F000804603918C4A8D4B2846394600F0C0FC1F
:104100004246039B00F012FA894A7A4402EBCB0341
:10411000D3E9002300F00AFA06900391019800F019
:1041200048FC0746DDE902030591069A009900F074
:10413000FDF9804A7A4402EBCB0BDBE9002300F067
:10414000F5F93A46059B00F0F1F9002588463A4614
:104150002846059B00F0BAFEDBE9002300F0B6FE1E
:10416000009B029A00F0B2FE039B069A00F0BCFD91
:104170000246002006900D98654FAAF101031843EE
:1041800001D16D4F069000200B460090304621462D
:1041900000F076FC82468B46234630461946009A4C
:1041A00000F094FE2A46434600F06AFC52465B4605
:1041B00000F0BCF906468A462A4643462146009846
:1041C00000F05EFC04460D463246534600F0AEF960
:1041D0005A4A8B46914226DBABEB020353EA0002BC
:1041E00010D122462B4600F071FE80460591544ABC
:1041F000544B3046514600F099F94246059B00F079
:104200003DFD30D20220FFF718FB40F201320020C2
:104210004FF0E04101F079FA0A46394614B062F3F2
:104220001E01BDE8F08D484B2BF000429A421AD394
:10423000464A0BEB020353EA000208D122462B4602
:1042400000F044FE3246534600F018FD0BD8022021
:10425000FFF7F3FAFFF71AFC0A46394614B062F387
:104260001E01BDE8F08D2BF000403949394A01EBC1
:1042700020514FF00008824223DA481C4FF480118D
:1042800021FA00F05844344AC0F30A517A44334BBF
:10429000A1F2FF31CB4020EA0303C0F3130040F446
:1042A000801CC1F1140012682CFA00F8BBF1000F59
:1042B000B8BFC8F100082046294600F007FE0446B2
:1042C0000D4622462B463046514600F02FF94FF05E
:1042D000000B5A46224B5846059100F0D1FB009046
:1042E0000791204A204B5846059900F0C9FB0491DC
:1042F000029022462B465846059900F0E7FD3246CB
:10430000534600F0F1FC31E07AB60B00E6350000D0
:104310000000F03F24360000523500000000084045
:1043200009C7EE3FFD033ADCF5015B14E02F3EBE0A
:104330002A340000F03300000000F0BF000090407D
:10434000FE822B654715973C00CC904000346F3FB0
:1043500001FCFFFF0000E03F10330000FFFF0F00F3
:10436000432EE63F396CA80C615C20BE3F4A404BAF
:1043700000F086FB049B029A00F0D8F806468A46B5
:10438000079B009A00F0D2F804460D46079B009A5E
:1043900000F09CFD3246534600F0A6FC064622463D
:1043A0002B4609911046194600F06AFB83460246E7
:1043B00030488A460B4605217844FFF712FB5A46DF
:1043C000534600F05DFB22462B4600F08DFC8246F2
:1043D0008B46324620462946099B00F051FB324667
:1043E000099B00F0A3F80591089000224FF080434C
:1043F0005046594600F06AFD0646009152465B461B
:104400002046294600F03CFB3246009B00F04AF96A
:10441000059B089A00F05AFD22462B4600F056FDF7
:104420000022154B00F060FC0D46044601EB0851DC
:104430000815002810DC42462046294601F065F99F
:10444000FFF7BBFA042808BFFFF720FB42462046CF
:10445000294601F05AF9044606980B4614B0224644
:104460003946BDE8F04D00F00BBB0000EF39FAFE15
:10447000422EE63FBC3100000000F03F2DE9F04144
:1044800006460F4600F03CFC04000D4618BF012014
:10449000284320F00040C0F17F6000F1E040C00FF1
:1044A0000ED0301C18BF0120384320F00040C0F16E
:1044B0007F6000F1E040C00F04BF0120FFF7BDF9AD
:1044C00020462946BDE8F08121F00042A2F1605269
:1044D000B2F5801F01F0004328BFD2F17F6C0BD9E9
:1044E0005FEA001C43EAC20242EB507018BF7047FB
:1044F00028BF20F001007047B2F5801FBCBF1846EE
:1045000070474FEA410C1CF5001F02D2084601F02B
:1045100046B870B500F05EFB00000089FFF7F6BFFB
:104520004FF00040A0F580007047000010B591EA00
:10453000030F48BF83F0004300F1D084841A71EB6D
:10454000030C05D2121943EB0C03001B61EB0C01A9
:10455000DFF824E14FEA1154A4EB135C1EEA430F89
:1045600018BF9EEA445F73D023EA0E03DCF1200EED
:1045700021EA045143F4801332D322FA0CFE10EBEB
:104580000E0023FA0CFE41EB0E01CCF1200E03FAD3
:104590000EFE10EB0E0051F10001B1F5801FCCF1C1
:1045A000200E32D201EB045112FA0EF2BDE8104097
:1045B00058BF7047401C38BF5FEA420218BF7047BF
:1045C000002814BF20F0010041F100014FEA41032F
:1045D00013F5001F38BF7047A1F1C04100F048BB80
:1045E000012A43EB0302ACF1200CDCF11F0E32BFB9
:1045F0004FF0000E23FA0CF310EB030041EB0451D3
:10460000B4EB115FD0D0A1EB045101F58011490842
:104610005FEA300001EB04510ED350F1000038BFC7
:1046200012FA0EFE08D1BDE81040C9E7401C38BFA1
:104630005FEA4202CAD1C3E7BDE810404FEA410336
:1046400013F5001F38BF7047A1F1C04100F010BB47
:104650009EEA445F08D011EA5E0FBDE8104004BF37
:1046600001F0004100207047BDE8104070B500F037
:10467000B1FA00BF64FBBE3E0000E0FF02494FF00C
:10468000000001F010B800BF0000F87F491058BFCB
:10469000C1F140415B1058BFC3F140438B42EFF37F
:1046A000008070472DE9C04130B4DFF8A0C23CEA79
:1046B000111418BF3CEA131400F0EC8081EA0305E2
:1046C0001CEA111444EAD57418BF1CEA131500F053
:1046D000C780A4EB05044FF0004545EAC12145EA37
:1046E000C32341EA505143EA525304F17F74994283
:1046F00004F500344FEAC0204FEAC22208BF9042BE
:1047000000F09C804FEA13650FF24016765D4FEA89
:10471000134506FB05F7C7F1807706FB07F74FEA5D
:10472000D737A7FB03687642C8F58038A7FB06CECB
:1047300038BFA8F1010807FB08E64FF0000EA6FB02
:10474000028CE6FB03CEDCF1000CCEF1004E38BF4C
:10475000AEF1010EA6FB0C584FF000074FF000051C
:10476000E6FB0E87A1FB08C6A0FB07CE16EB0E06E4
:1047700045F10005E1FB076515F1E04E7EBFA4F5AC
:1047800080345FEA46066D4116F1800745F1000569
:104790004FEA17274FEA066647EA0567A6F1DE46A5
:1047A000B6F1805F4FEA15251FD9384624F0010C79
:1047B00005EBC471BCF1FE6F01EB0C1102D8F0BC2B
:1047C000BDE8008124425CBF01F5801E9EEAC47FE3
:1047D00002D4F0BCBDE80081244238D4F0BCA1F181
:1047E000C041BDE8004100F043BA4FEAD22242EA9C
:1047F00043524FEAD323A7FB02864FEAD02040EA78
:10480000415007FB03661EEA0E0F4FEAD12105FB5C
:10481000026658BFA6EB0056B6EB00564FEA520EA2
:104820004EEAC37E18EB0E0E56EB530EBDD518EBB9
:1048300002085E417F1C55F10005B6E74FF4801574
:104840004FF000074FF000064FF00008ADE7F0BC56
:104850004FF0000001F1C04101F00041BDE80081CE
:1048600011EA0C1F0CEA131500D00CE013EA0C1F20
:1048700000F025804FF00000F0BC81EA030101F058
:104880000041BDE80081F0BC81EA0301BDE80041C0
:1048900000F0EEB9F0BCBDE8004170B500F09AF947
:1048A000097EFC3E00F007B881EA03014FF00000EA
:1048B00001F00041704781EA030100F0D9B9F0BC72
:1048C0004FF000002249BDE800417047FFFDFBF9B1
:1048D000F7F5F4F2F0EEEDEBE9E8E6E4E3E1E0DE33
:1048E000DDDBDAD8D7D5D4D3D1D0CFCDCCCBCAC8A5
:1048F000C7C6C5C4C2C1C0BFBEBDBCBBBAB9B8B7CC
:10490000B6B5B4B3B2B1B0AFAEADACABAAA9A8A8BE
:10491000A7A6A5A4A3A3A2A1A09F9F9E9D9C9C9B8C
:104920009A99999897979695959493939291919037
:104930008F8F8E8E8D8C8C8B8B8A898988888787C8
:104940008685858484838382828181800000FF073D
:104950000000F87F4FEA41034FEA5353A3F5806309
:10496000D3F11E03C8BFD3F1210C0CDD4FF0004280
:1049700042EAC12242EA505232FA03FC8CEAE17C5C
:10498000ACEBE1707047102BC4BF0020704703F5FB
:10499000787CBCF1FF3F04D06FF0004282EA210036
:1049A000704770B500F016F94992248000207047D6
:1049B000F2E710F0004248BF4042B0FA80F310FA2C
:1049C00003F10AD0C3F11D0303F580634FEA4150A0
:1049D00002EB035202EBD12170474FF00000704709
:1049E000B0FA80F310FA03F10AD0C3F11D0303F506
:1049F00080634FEA41504FEA035202EBD1217047E6
:104A00004FF000007047000051EA030C17D41CF56A
:104A1000801F58BFBCF5801F00F10680994218BF67
:104A2000704708BF9042704707D711F5801F58BFE5
:104A300013F5801F19D499427047894270471CF5BD
:104A4000801F08D5BCF5801FF7D58B4218BF704773
:104A500008BF824270474FF4001C1CEB410F38BF67
:104A60001CEB430F01D28B42704770B500F0B2F8D7
:104A7000922449004FF000514FF08053FFF706BEDB
:104A8000DFF848C170B51CEA111E1EBF1CEA1315E1
:104A90009EEA0C0F95EA0C0F00F06F8081EA030488
:104AA00023EA4C134EEAD47E21EA4C1141F48011E2
:104AB00043F48013AE44A1FB024CA0FB0365AEF1AE
:104AC0007F7E361955EB0C05A1FB034C4CF100031E
:104AD000A0FB021C16EB0C06654153F100030942D2
:104AE00018BF46F0010613F4007F0BD14FEA0331E3
:104AF0004FEA0530340341EA155140EA16506FF091
:104B000003020AE04FEAC3214FEAC520F40241EA5A
:104B1000555140EA56506FF0020202EB2E4201EB73
:104B2000025585EACE710AD05FEA440C18BF24F022
:104B3000004450F1000041F1000120EAD47040F23D
:104B4000FE7C624500D270BDA84214BF4FF0804485
:104B50004FF04044002E08BF0024BEF1806FA8BF74
:104B6000A1F1C041BDE8704080F282804FF00000AA
:104B700001F1C04101F0004170479EEA0C0F0CEAC0
:104B8000131518BF95EA0C0F06D04FF0000081EA0C
:104B9000030E0EF0004170BD00F01CF88900013ECC
:104BA00000F007B800F009B84FEA430C5FEA5C5C1C
:104BB00008D081EA030100F05BB84FEA410C5FEADC
:104BC0005C5CF6D14FF00000014970470000FF0720
:104BD0000000F87F0EF1020E2EF0030E5EF8046B5B
:104BE000364205D4012A43EB030515F5001F12D800
:104BF000012841EB010C1CF5001F0CD80ED14FEA27
:104C0000D17C15F5001F0CEB4C0C0CF1020C08BF0D
:104C10004CEBD37C04E04FF0080C01E04FEAD37C6E
:104C20000CEB4C0526FA05F606F00706B6F1040C67
:104C300006D20EEB860CBDE870404CF0010C6047CC
:104C4000DFE80CF0090B02024FF000414FF00000CA
:104C5000A1F5002170BD19461046012851EB010451
:104C600018BFD4F5001484BF002001F0004170BDCE
:104C70000808A0F500114FEA3101704753EA010C12
:104C800017D41CF5801F58BFBCF5801F00F10680AB
:104C90008B4218BF704708BF8242704707D713F591
:104CA000801F58BF11F5801F19D48B4270479B425B
:104CB00070471CF5801F08D5BCF5801FF7D59942B9
:104CC00018BF704708BF904270474FF4001C1CEBA0
:104CD000430F38BF1CEB410F01D2994270470FB40C
:104CE0000CBC03BCFFF7C1BE91EA030F10B581F005
:104CF00000413FF523AC83F0004300F0EFB8000023
:104D00002DE9F04101F5801CBCF5001FC0F2C38005
:104D10004FEA115C21EA0C510CF1FD0C41F48011B9
:104D20005FEA5C0C0CF5C07C01D3400049413DA416
:104D3000890241EA905187028E0E0A0CA45D04FBA1
:104D400004F602FB06F6C6F14046A4FB0662F60D29
:104D500046EA422606FB06F4A4FB01235242C3F1B5
:104D6000404338BF5B1EA6FB02420024E6FB03243F
:104D7000D20B42EA4446A6FB0623A1FB02E2A3FBB8
:104D800007E4A4184FF0000252F10002E3FB0142D5
:104D90006442C2F1404E38BFAEF1010EA6FB0423BF
:104DA0004FF00002E6FB0E32A2FB03464FF0000478
:104DB000B61954F10004E2FB0264A1FB06E6A4FB71
:104DC00007E816EB08064FF0000858F10008E4FB6E
:104DD00001687642C8F1405838BFA8F10108A2FB2B
:104DE00006E4A3FB08E52D194FF0000454F100047C
:104DF000E2FB0854A1FB05E6A7FB04E818EB060854
:104E00004FF0000656F10006E1FB048618F120057C
:104E100056F10006A809A8F11B08B10908F03F08DF
:104E2000B8F10A0F40EA86601CD901EB0C51BDE8CD
:104E3000F08100BFFCF5EEE8E2DDD8D3CFCBC7C3ED
:104E4000C0BDB9B6B4B1AEACA9A7A5A3A19F9D9BA7
:104E50009A9896959392908F8D8C8B89888786856A
:104E600084838281A0FB006800FB01F208EB42080A
:104E7000B8EB872807D5341858EB0104D5D5401C6A
:104E800051F10001D1E7341A78EB0104CDD4401E72
:104E900071F10001C9E75FEA4C0C5FEA9C5C0DD13F
:104EA00005D34FF0000001F00041BDE8F081BDE8FE
:104EB000F04170B5FFF78EFE6DDBFFBEBDE8F0413F
:104EC0004FF00000004970470000F87F10B591EAEC
:104ED000030F48BF83F000433FF530AB841A71EBFA
:104EE000030C07D212198CF0004C43EB0C03001B8F
:104EF00061EB0C01DFF8A4E14FEA1154A4EB135C61
:104F00001EEA430F18BF9EEA445F00F0B08023EA18
:104F10006E03524221EA0451C3EB6E0338BF5B1E9D
:104F2000DCF1200E25D322FA0CFE10EB0E0043FA22
:104F30000CFE41EB0E01CCF1200E03FA0EFE10EB3D
:104F40000E0051F10001CCF1200E29D412FA0EF21C
:104F500001EB0451BDE8104058BF7047401C1CBF16
:104F6000B2F1004F704700280CBF491C20F001002F
:104F7000704712EB020E43EB030218BF4FF0010E15
:104F80004EEA4202ACF1200CDCF11E0E54D943FA79
:104F90000CFE10EB0E0051F1FF31CCF11E0ED5D5F9
:104FA0000EF1010E12FA0EFE404141EB010101EB40
:104FB000445C5FEA5C5C10D910EBDE7001EB0451DD
:104FC00038BFBEF1004FBDE8104018BF7047002841
:104FD0000CBF491C20F00100704730D24FEAD42C9E
:104FE00011F5001124F400641BD0B1FA81F20B3AE0
:104FF000A41AA41ED2F12003914030FA03F31943FE
:10500000904001EBCC71002C01EB0451BDE8104045
:10501000A8BF704701F1C0414FF0000001F000410E
:105020007047B0FA80F310FA03F100D110BDE41A12
:10503000173C4805C90AE4E701EB045110BD4910CB
:1050400001EB0451BDE810404FEA300002E04FF0A0
:10505000000170474A0008BF0042F8D0B2F5001FB7
:1050600028BF704701F000414FF0000070479EEAF2
:10507000445F07D011EA5E0FBDE8104004BF002175
:1050800000207047BDE8104070B5FFF7A3FD00BFDA
:1050900040DFF63E83F00041104670470000E0FF1D
:1050A00043004FEAD30C4FEA3C0C43401FBF40077C
:1050B0000CF1605113F0FE4F70471CF0006F03D1EC
:1050C00000200CF0004170470CF0004343EA5070A0
:1050D00010B540EACC0000F01CFA00BF00000092BE
:1050E0004FEA0001FFF7C4BD4FF000414FF0000050
:1050F000A1F500217047000090EA010F48BF81F040
:10510000004100F16282421A3CBF801A89184FEABE
:10511000D0524FF07F4C1CEA410FA2EBD15318BF85
:105120009CEA026F00F03B804FF0004C4CEA0020FC
:105130004CEA012121FA03FC10EB0C0C1ED202F107
:10514000FF325FEA1C2040EBC25038BF70471CF0B2
:105150007F0F4FEA400C18BFBCF17F4F38BF70473C
:10516000C3F12003994008BF20F00100BCF17F4F3C
:1051700038BF7047A0F1C04000F011BA4FEA3C00C0
:10518000000A40EBC25028BF1CF0FF0F4FEA400C52
:10519000E6D018BFBCF17F4F38BF7047EAE79CEA02
:1051A000026F05D010EA5C0F08BF00F000407047A6
:1051B00010B500F0AEF900BF64FBBE3E4FF47F0CAB
:1051C0001CEAD0121EBF1CEAD11392EA0C0F93EA1C
:1051D0000C0F00F0858090EA010F48BF42F4807206
:1051E00040F4000C41F400002CF07F4120F07F409F
:1051F00000B58142A2EB03020FF2081CACEB504E4B
:10520000C0F100009EF800E04FEA4E0E00FB0EFCDD
:1052100038BF49004FEA2C1C02F5FA020CFB0EF3D2
:105220004FEACE1E4FEA112C4FEAC1210EEB635E0E
:1052300042EB22420EFB0CFC4FEA1C5300FB031115
:105240004FEA112C4FEA01310EFB0CFC4FEADC4C0B
:1052500000FB0C11C14228BF09184CEB03335DF869
:1052600004EB10EB410143EBC250B2F57C0F38BFA9
:10527000704729D512F0F00F1CBF00F1C04000F0BC
:1052800000407047008182838485868788898B8C63
:105290008D8E8F919293959697999A9C9D9FA0A29F
:1052A000A3A5A7A8AAACAEB0B2B3B5B7B9BCBEC0EF
:1052B000C2C5C7C9CCCED1D4D7D9DCDFE2E6E9EC90
:1052C000F0F3F7FAFE0000004FEA400C0CF1807C8E
:1052D000BCF17E4F28BF7047B0F1C04000F05FB90D
:1052E00090EA010F0CEAD11348BF42F48072624584
:1052F00038BF634507D213F47F0F16D080EA010050
:1053000000F00040704710B500F003F9097EFC3E44
:1053100000F005B880EA010000F00040704780EA24
:10532000010000F0004000F03AB912F47F0F04BF12
:105330000248704780EA010000F031B90000C07FE8
:1053400041000B0ED3F19E0208D950F400034FEA3E
:10535000032323FA02F048BF4042704710B500F023
:10536000D8F800BF49922480002070476FF00042B7
:1053700082EA200070470000C10DD1F19E0206DBD9
:105380004FEA002343F0004323FA02F07047004243
:1053900007D54FEA4001B1F1FE4F02D24FF00000B5
:1053A000704710B500F0B5F849922480002070478E
:1053B0006FEA20007047000010F0004148BF4042F3
:1053C000B0FA80F310FA03F2C3F19D030BD051EA57
:1053D000C35101EB1220530638BF704700F10100A2
:1053E00008BF20F001007047B0FA80F310FA03F212
:1053F000C3F19D030AD0D90501EB1220530638BF33
:10540000704700F1010008BF20F001007047000064
:105410004FF47F0C1CEAD0121EBF1CEAD11392EA93
:105420000C0F93EA0C0F00F0478090EA010F48BF81
:1054300042F480724FF0004C4CEA00204CEA01210B
:1054400002EB0302A0FB0113A2F50002002918BF22
:1054500043F001035B0028BF4FEA330342EB2242D3
:105460005FEA132C4CEBC2502EBFBCEB436FB2F57E
:105470007C0F70474FEA036CBCF1004F08BF20F06F
:105480000100B2F57C0F38BF70470BD582F0FF02E8
:1054900012F5803FC8BF704700F1C040D8BF00F090
:1054A0000040704700F5000C5FEA4C0C48BF7047A5
:1054B000B0F1C04000F073B890EA010F0CEAD113CC
:1054C00048BF42F48072624538BF634504D280EA27
:1054D000010000F00040704710B500F01AF800BF5E
:1054E0008900013E00F007B800F009B85FEA410CFE
:1054F0005FEA1C6C08D080EA010000F050B85FEA57
:10550000400C5FEA1C6CF6D14FF00040A0F5800023
:1055100070470EF1020E2EF0030E5EF8044B24428B
:1055200004D44FEA4102B2F17F4F11D84FEA400351
:10553000B3F17F4F0CD80ED14FEAD07CB2F17F4F40
:105540000CEB4C0C0CF1020C08BF4CEBD17C04E0D2
:105550004FF0080C01E04FEAD17C0CEB4C0324FA2D
:1055600003F404F00704B4F1040C06D20EEB840C2F
:10557000BDE810404CF0010C6047DFE80CF0070874
:1055800002024FF00040A0F5800010BD0846420026
:1055900018BFD2F1807288BF00F0004010BDFF211B
:1055A00041EAD050C005704780F0004090EA010FFA
:1055B0007FF5A9AD81F0004100F007B890EA010F36
:1055C00048BF81F000413FF59EAD421A04D882F0F9
:1055D0000042A0EB020011444FEAD0524FF07F4C42
:1055E0001CEA410FA2EBD15318BF9CEA026F4AD0CC
:1055F0004FF0004C4CEA00204CEA012121FA03FC58
:10560000B0EB0C0C0FD412F0FE0F36D05FEA4C005A
:105610001DD5001240EBC25038BF70471CF03F0F41
:1056200018BF70470BE0A2F101025FEA1C2040EBBB
:10563000C25038BF70471CF07F0F18BF7047C3F1CE
:105640002003994014BF401E20F0010070478008DD
:105650004FEA122308BF7047B0FA80FCA2EB0C029D
:10566000CCF1280C60FA0CF093EA122F04BF00EB87
:10567000C25070474FEAC3707047130A5FEADC10EC
:1056800008BF7047F6E79CEA026F04D010EA5C0F8F
:1056900008BF0020704710B5FFF73BFF40DFF63E24
:1056A00081F0004070470CF00F03092B08BF082061
:1056B00000F059800A2B0BD0082B18BF704708BF89
:1056C0001CF0400F0AD04FF000004FF0000170476F
:1056D0001CF0400F18BF4FF0004070471CF0100F37
:1056E00008D020F0704300F07F4242EAD3014FEA35
:1056F0004370704700F0604021F07F4242EA0002B0
:1057000001F07F4040EA727070474FF0FF0C4CF49C
:10571000E06C1CEA11531CBF9CEA030C9445C2BF09
:10572000DA4201EB02517047002B0DD0BCF1000FA3
:105730000FD0002A01F00041A4BF41F0E04141F048
:105740007F614FF00000704701F000414FF0000012
:10575000704750EA01334FF09B0C18BF4CF0806C3F
:105760007EF48CAF70471CF4801F11D01CF4E02F26
:1057700003D06FEACC31490070474FF04050EFF34F
:10578000008222F0704242EA000282F300887047F1
:105790004FF000007047000023F81208120883F849
:1057A0004208420813F8100027FCE4A424A424A40F
:1057B00024A42FFE0000010000803FFE22202220B2
:1057C0003FFC2220222023E020002FF02410422042
:1057D00041C08630380E0100010002003FF8244825
:1057E0002448244824482448244824482448244859
:1057F0002448FFFE000020003FFC40009FF0000016
:105800007FF011100A107FD004103F900412FFEABD
:10581000040A0406040200407820481049E04822A7
:1058200078344BB848B048A878A8492849244A2475
:105830004C2248A098401028102413FE1020FDFC94
:10584000112411FC152419FC3124D00813FE1088F2
:10585000104850482018000002000100008000801D
:105860000400040824042404240244024412841082
:10587000041003F000000100010001003FF82108BE
:10588000210821083FF82108210821083FF8210AB2
:105890000102010200FE00007FFC4204420447E4D2
:1058A0004C445284410446C4783C4304408446043A
:1058B00041847FFC4004101010509450545058887C
:1058C0001088FD0432FA38485448544890481088EB
:1058D0001088112812100100010009200910110878
:1058E000210441040000010001003FF80100010013
:1058F0000100FFFE000000402040104017FC84849F
:1059000048884140114413482530E92021102108DE
:10591000214421820100010000803FFE222022203C
:105920003FFC2220222023E020002FF024104220E0
:1059300041C08630380E01104FFE211027BC04A450
:1059400087BC4140512013FE2220E7FC2A2023FC83
:10595000222023FE020000802040100017FC80401F
:1059600040404040104013FC2040E0402040204098
:1059700020402FFE000011001104113811C0FD025B
:10598000110210FE140019FC3104D10411FC1104A1
:10599000110451FC2104082049202A20083EFF441C
:1059A0002A44494488A41028FE2822104210642862
:1059B00018283444C282600091F4960C6C040804E8
:1059C00018001800180018001800180008000C042F
:1059D000060801F0000000000000000000000000C8
:1059E0000000000000000000300030000000300027
:1059F00030000000000000804080208020FC010476
:105A000009080A4014401040E0A020A021102110F5
:105A1000220824040802004004400420082010103A
:105A2000200840049FE204200420042008200820CD
:105A30001020214040800000000000000000843E53
:105A40008444844484388440CD3CB2428042803CCB
:105A50008000000000000000080708011007100186
:105A6000100727F0224822484248424847688000F1
:105A70008000800000000000000000000000000026
:105A80000000000100001F8001FC00000000000079
:105A9000000000000001FC00FE003F30000030006C
:105AA00000600000C2000081800103C003FCE00729
:105AB00080600400200000000000000000000000E2
:105AC000000000000000000103000381000301202A
:105AD0000203F006652805E1780C7FA01E416012E4
