:020000040800F2
:10000000A809002085020008890200088B02000868
:100010008D0200088F020008910200080000000015
:100020000000000000000000000000009302000833
:1000300095020008000000009702000899020008DD
:100040009B0200089B0200089B0200089B0200081C
:100050009B0200089B0200089B0200089B0200080C
:100060009B0200089B0200089B0200089B020008FC
:100070009B0200089B0200089B0200089B020008EC
:100080009B0200089B0200089B0200089B020008DC
:100090009B0200089B0200089B0200089B020008CC
:1000A0009B0200089B0200089B0200089B020008BC
:1000B0009B0200089B020008070E00089B02000834
:1000C0009B0200089B0200089B0200089B0200089C
:1000D0009B020008470600081D0C0008E91B0008E9
:1000E0006D0B00089B0200089B0200089B020008A1
:1000F0009B0200089B0200089B0200089B0200086C
:100100009B0200089B0200089B0200089B0200085B
:100110009B0200089B0200089B0200089B0200084B
:100120009B0200089B0200089B0200089B0200083B
:1001300000F002F800F090F80AA090E8000C824469
:100140008344AAF10107DA4501D100F085F8AFF246
:10015000090EBAE80F0013F0010F18BFFB1A43F0A5
:1001600001031847A0530000C0530000103A24BFF9
:1001700078C878C1FAD8520724BF30C830C144BF0C
:1001800004680C607047000000230024002500264E
:10019000103A28BF78C1FBD8520728BF30C148BFEA
:1001A0000B6070476E2902F04380702902F0838152
:1001B000662905F07280652905F06F80672905F0D2
:1001C0006C806129AFF3008003681B0A28BF41F0EF
:1001D0008001692901F0F287642901F0EF87752910
:1001E00001F0EC876F2902F01181782902F04F812C
:1001F000E92902F0AD80E42902F0AA80F52902F095
:10020000A780EF2902F00E81F82902F04E810368E1
:10021000DB0928BF41F08001632902F0D2847329F1
:1002200002F0D784E32902F0E284F32902F0E784A4
:10023000002070471FB502F039FD040000200021A6
:1002400003F08AFF401C60600020002103F06EFF75
:10025000E0601FBD10B510BD02F0FAFC1146FFF7BB
:10026000E9FF00F067FB02F0D1FD03B4FFF7F2FFF6
:1002700003BC00F0D9F9000030BF72B662B680F35B
:100280000888704708480047FEE7FEE7FEE7FEE7FC
:10029000FEE7FEE7FEE7FEE7FEE7FEE70348044968
:1002A000044A054B7047000031010008A8030020F4
:1002B000A8090020A8050020A80500204FF0E02193
:1002C000096921F004014FF0E0221161C21700EB2F
:1002D0005272C2F3C702234B1A701946097801EB18
:1002E0004102C2EBC1114FF6FF7202EAC1011E4A80
:1002F0001180704701461B4A12784A434FF0E023B1
:100300005A6100229A6101221A6100BF4FF0E02277
:10031000106900F001021AB100F48032002AF5D011
:1003200000224FF0E0231A619A61704701460E4A9D
:1003300012884A434FF0E0235A6100229A61012259
:100340001A6100BF4FF0E022106900F001021AB1FB
:1003500000F48032002AF5D000224FF0E0231A6129
:100360009A6170470000002002000020A34A0A4062
:100370000243A34B1A6070470146072323EA010298
:1003800012029F4B1B1D18684FF6FF0318409D4B30
:10039000184310439A4B1B1D186070472DE9F0411C
:1003A0000746884614461D462846FFF7E5FFC5F177
:1003B000040007FA00F60F20284100EA080006436F
:1003C00006F00F06E21704EBD2625211920002F11E
:1003D000E022D2F800212146E31704EBD3635B113E
:1003E000A4EB431C012303FA0CF31A432046E31742
:1003F00004EBD3635B119B0003F1E023C3F80021FE
:100400008148005D40EA06107F490855BDE8F0814B
:1004100070B504460B46CE1701EB9676C6F38700FF
:10042000CE1701EB9676B610A1EB8606B606350E12
:10043000764B9B6943F00103744EB3614FEAB633C8
:1004400053F820300F26AE40B343714E46F82030AB
:10045000334653F8203004FA05F61E436C4B43F83C
:1004600020606C4B1B6801268E403343694E33601D
:1004700002F0010343B1674B0C331B6801268E4029
:100480003343644E0C36336002F0020343B1614BD8
:1004900008331E6801238B401E435E4B08331E60E9
:1004A00070BD00B5002059490861C860142048613A
:1004B00000208861C8610846006840F001000860BB
:1004C000084640685449084050494860084600685A
:1004D000524908404D4908600846006820F48020D1
:1004E00008600846406820F4FE00486000208860EC
:1004F00000214FF00060FFF739FF00BD10B5404804
:100500000830006840F004003D49083108603F4869
:10051000C06940F080503D49C8614148406840F49E
:1005200080703F4948600846006840F00400086059
:100530000846006840F002000860FFF79DFE10BD0D
:100540003048001D2E49091D0860704701464906C4
:100550002E4A926942F001022C4B9A612C4A083AC9
:10056000526822F0E0622A4B083B5A601A465268F1
:100570000A435A60704730B504460025FFF791FFE3
:100580002248006840F480302049086000BF1F48BE
:100590000068400C0028FAD04FF480601B49486086
:1005A000A01EC4B20846406840EA8440486008463D
:1005B000406840F4803048601A48006840F03200DB
:1005C000184908601148006840F080700F490860C1
:1005D00000BF0E480068400E0028FAD00B48406863
:1005E00040F002000949486005E008484068C0F34F
:1005F000870505F00305022DF7D130BD80FFFF1FF1
:1006000008ED00E00000FA0500E400E00010024000
:1006100008000140000401400000FFF8FFFFF6FE63
:100620000070004000200240014600BF704700BF3C
:10063000584A128802F04002002AF9D0C2B2554B43
:100640001B1D1A8070475349098801F0200111B31E
:100650005049091D0988C8B24F49098801F4004171
:10066000C9B94D49098801F4804161B10A2803D014
:100670000021494A118020E04749098841F400419E
:10068000454A118019E00D2806D14349098841F4F3
:100690008041414A118010E03F490988C1F30D01B2
:1006A0003E4A50543C490988491C3B4A1180114636
:1006B0000988C72901DD0021118070472DE9F05F0D
:1006C00005460E46300104F089FC8146344905FB9D
:1006D00001F004F083FC8246494604F09DFB074686
:1006E000384604F05BFC84B2204604F077FC834675
:1006F000394604F053FD82464FF0834104F082FCFA
:10070000814604F04BFC80464FF6FF7000EA04146B
:1007100004EB080084B22348806940F004002149BA
:1007200088610846806940F4804088611E480068FE
:1007300020F47F601C4908600846006840F40B60A4
:1007400008601848C06840F480401649C8600846F0
:10075000C06820F48040C8600E4808300480001D46
:10076000008842F20C0108430A490C31088008460F
:10077000008840F4807008800846008840F020001F
:1007800008800223252203210846FFF707FEBDE863
:10079000F09F0000003801400800002050000020B9
:1007A00040420F00001002400408014010B5002430
:1007B00018E0C6480078012803D10020C34908701A
:1007C00010BD0020C24908604FF4FA70FFF7AEFD7B
:1007D0000120C049C1F8BC014FF49670FFF7A6FD97
:1007E000601CC4B21E2CE4DB00F05DFC0120BA49A1
:1007F00008604FF49670FFF799FD0020B749088014
:1008000011E0B648008800F4004060B1B44800F040
:10081000A3FD28B10020B049086000F0F9FB03E017
:100820000020AE490880ECE700BF0020A84908601E
:100830004FF4C870FFF77AFD0120A649C1F8BC014A
:1008400000BFBDE710B500F076FC0120A2490860AA
:100850004FF49670FFF76AFD0020A049088011E070
:100860009E48008800F4004060B19D4800F074FD8F
:1008700028B100209849086000F0CAFB03E000207E
:1008800096490880ECE700BF0020914908604FF4CA
:10089000C870FFF74BFD01208E49C1F8BC0110BDA7
:1008A00010B50220FFF767FE1020FFF707FD4FF499
:1008B00016511020FFF702FF4FF41651082000F0E8
:1008C00021FA4FF41651082001F024F985480488D4
:1008D0008548048885480488854986A000F0D8FAB0
:1008E000884989A000F0D4FA00F064F901208A490F
:1008F000086001F017FB01207649C1F8BC0100F047
:100900000FF901F04BFB0020734908600120091D1D
:10091000086071490C3108604FF4FA70FFF706FD6A
:1009200000F082FF00F09BFE02222821502001F0FF
:1009300013FB10BD0024FFF7B3FF4FF47A70FFF7ED
:10094000F5FC30E000F09CFE00F052FE0220FFF7C4
:10095000EDFC01F0A8FA04465C48007801280BD1B0
:1009600000205A4908705A4908606420FFF7DEFCED
:1009700001205849C1F8BC015448007802280ED122
:10098000002052490870524908604FF44870FFF740
:10099000CDFC01204F49C1F8BC01FFF753FF14B152
:1009A0000024FFF703FFCDE730B502460023002007
:1009B0000FE0145C1C44E3B2145C4C4D2D1D2C80E4
:1009C00000BF4A4C248804F04004002CF9D0441C99
:1009D000A0B28842EDDB454C241D238000BF434C70
:1009E000248804F04004002CF9D030BD10B502205A
:1009F000FFF7C1FD1020FFF761FC4FF416511020E6
:100A0000FFF75CFE4FF41651082000F07BF94FF41D
:100A10001651082001F07EF83248048832480488D4
:100A200032480488324933A000F032FA354936A002
:100A300000F02EFA00F0BEF801203749086001F0FE
:100A400071FA01202349C1F8BC0100F069F801F0F6
:100A5000A5FA0020204908600120091D08601E49F0
:100A60000C3108604FF4FA70FFF760FC00F0DCFE18
:100A700000F0F5FD02222821502001F06DFA00243B
:100A800019E00120FFF752FC601C84B247F230509D
:100A9000844210DD05223221642001F05DFA00203D
:100AA0000D490C3108600A20FFF740FC01201B496A
:100AB000C1F89C01002400F0D1F90028E1D0032204
:100AC0005021C82001F048FA10BD00000A000020A3
:100AD000BC81214200802142900121420C00002073
:100AE000E001002000380140004400400048004080
:100AF000B702002038363138383239323839383791
:100B000035000000A802002038363133383030324A
:100B10003930353030000000888122420000214207
:100B200010B51F48806940F008001D4988611D48C4
:100B3000006820F470001B4908600846006840F413
:100B40000000086017480830006840F4005015495C
:100B50000831086001220D211046FFF759FC0223DD
:100B6000282219461846FFF719FC10BD10B50A20B7
:100B7000FFF7DCFB0C48006810B901200B49087036
:100B80004FF4C870FFF7D2FB0748006810B9022085
:100B9000064908704FF400500549086010BD000078
:100BA00000100240040C0140348121420A00002060
:100BB000140401400C48806940F020000A49886113
:100BC0000A48006820F47060084908600846006818
:100BD00040F44070086005480C30006840F00400A4
:100BE00002490C31086070470010024000140140B7
:100BF00058B10021904A11808F492439098841F069
:100C000001018D4A243A118007E08B492439098873
:100C100021F00101884A243A1180704700B58748C5
:100C2000008800F02000F8B18448001D0088C3B29D
:100C300083480088C82811DA00207F49088080484E
:100C4000008810B90120FFF7D3FF7D480188008894
:100C5000401C7B4A10807B48435405E0784800885C
:100C600040F400407649088000BD70B505460C464A
:100C70007548C06940F004007349C8616E48083087
:100C80000580001F04806C481838008840F001007F
:100C900069491839088068482438008840F0010004
:100CA00065492439088002231E2203210120FFF711
:100CB00075FB70BD70B504460E4615466248406926
:100CC00040F00100604948610520FFF713FBA66072
:100CD000E56000202060206840F01000206020685F
:100CE000206020682060206840F08000206020683C
:100CF000206020682060206840F4805020602068D8
:100D0000206070BD70B505460C464F48806940F0C4
:100D100004004D4988614D48006820F47F404B49EC
:100D200008600846006840F40B4008604648C06907
:100D300040F400304449C8610846006940F400307E
:100D400008610846006920F40030086140486843A3
:100D5000B0FBF4F0394908310880081D008842F2E0
:100D60000C01084335490C31088080203349143187
:100D70000880384A3149091D3748FFF79BFF2F4843
:100D80000C30008840F480702C490C3108800846F3
:100D9000008840F020000880022326220321184604
:100DA000FFF7FCFA41F61F416320FFF75EFF0020CA
:100DB00023490880FFF71CFF70BD026822F0010282
:100DC00002604160026842F00102026070470FB4A5
:100DD00038B505A800901F48009A049901F024F93D
:100DE0000020009000BF1C48001D00680028FAD1B8
:100DF000184801F02BF9C4B221461748FFF7DDFF70
:100E000038BC5DF814FB00B50B481438008800F0BE
:100E1000010080B10A48008840F400400849088079
:100E200005481438008820F001000349143908806F
:100E30000020FFF7DDFE00BD240800400044004014
:100E40000C000020E00100200010024000080140DA
:100E500040420F001801002080000240F648008840
:100E600000F4004090B10020F34A1080002109E016
:100E7000F248405CF24A525C904201D00020704738
:100E8000481CC1B20929F3DB0120F8E70020F6E78E
:100E900010B50246002007E0431CD35C0B54145CE1
:100EA000431CCC54831CD8B20C28F5DB46230B73AF
:100EB000137B4B7300238B7310BD00210CE0425C4D
:100EC000E04B1A8000BFDF4A121F128802F0400276
:100ED000002AF8D04A1C91B2425C002AEFD1704738
:100EE0002DE9FE434C20D84908706F2048706320DC
:100EF00088706120C87074200871692048716F2063
:100F000088716E20C8713A200872D0480078487203
:100F10002C208872CE4903C900F006FB0746002248
:100F2000CC4B03F007FC054603F040FB8146092447
:100F30000DE00A2099FBF0F100FB11903030C1B2B6
:100F4000601E0DF800100A2099FBF0F9641E002CB9
:100F5000EFDC002406E01DF8041004F10B00BA4A8F
:100F60001154641C032CF6DB2E20B749887303242C
:100F700006E01DF8041004F10C00B34A1154641C7F
:100F8000092CF6DB2C20B0494875B34800788875E9
:100F90002C20C875B14903C900F0C6FA05460022E5
:100FA000AC4B03F0C7FB074603F000FB8146082467
:100FB0000DE00A2099FBF0F100FB11903030C1B236
:100FC000601E0DF800100A2099FBF0F9641E002C39
:100FD000EFDC002406E01DF8041004F118009A4A22
:100FE0001154641C022CF6DB2E20974988760224CB
:100FF00006E01DF8041004F11900934A1154641C12
:10100000082CF6DB0020904981F82100BDE8FE8322
:1010100010B593A0FFF751FF4FF4FA70FFF786F970
:1010200092A0FFF74AFF94A0FFF747FF96A0FFF7B3
:1010300044FF4FF4FA70FFF779F994A0FFF73DFFF2
:1010400095A0FFF73AFF90A0FFF737FF4FF4FA7033
:10105000FFF76CF9FFF744FF7B48FFF72EFF4FF4D3
:101060007A70FFF763F94FF47A70FFF75FF94FF486
:101070007A70FFF75BF94FF47A70FFF757F91A208F
:101080007049088000BF6F48001F008800F04000D2
:101090000028F8D04FF47A70FFF748F94FF47A70CF
:1010A000FFF744F910BD10B57FA0FFF706FF4FF41E
:1010B000FA70FFF73BF97FA0FFF7FFFE4FF4FA70DD
:1010C000FFF734F97FA0FFF7F8FE8048FFF7F5FE41
:1010D0007FA0FFF7F2FE8148FFF7EFFE80A0FFF749
:1010E000ECFE81A0FFF7E9FE80A0FFF7E6FE4FF4DB
:1010F0007A70FFF71BF94FF47A70FFF717F94FF486
:101100007A70FFF713F94FF47A70FFF70FF91A208E
:101110004C49088000BF4B48001F008800F0400089
:101120000028F8D04FF47A70FFF700F94FF47A7086
:10113000FFF7FCF810BD10B55BA0FFF7BEFE4FF443
:10114000FA70FFF7F3F86EA0FFF7B7FE4FF4FA70EE
:10115000FFF7ECF85BA0FFF7B0FE5C48FFF7ADFED1
:101160005BA0FFF7AAFE5D48FFF7A7FE5CA0FFF7B4
:10117000A4FE67A0FFF7A1FE66A0FFF79EFE4FF456
:101180007A70FFF7D3F84FF47A70FFF7CFF84FF487
:101190007A70FFF7CBF84FF47A70FFF7C7F81A2090
:1011A0002849088000BF2748001F008800F0400041
:1011B0000028F8D04FF47A70FFF7B8F84FF47A703F
:1011C000FFF7B4F810BD00B55AA0FFF776FE11E0A6
:1011D0001948008800F4004060B1002016490880DA
:1011E000164800784F2805D1144840784B2801D183
:1011F000012000BDECE710B50020524908605020E6
:10120000FFF794F850A0FFF758FE13E00A48008853
:1012100000F4004070B100200749088007480078BA
:101220004F2807D1054840784B2803D10120454974
:10123000086010BDEAE70000080000205000002010
:101240008E53000804380140C60200201000002020
:101250001800002080842E41110000202000002072
:1012600041542B434D47463D310D0A0041542B4319
:101270005343413D222B0000383631333830303271
:101280003930353030000000220D0A0041542B4324
:101290004D47533D222B0000383631383832393231
:1012A000383938373500000041542B434D47463D0F
:1012B000300D0A0041542B434D47533D32330D0A44
:1012C000000000003038393100000000A802002082
:1012D000313130303044393100000000B702002095
:1012E0003030303841410000303800003632313182
:1012F000363435343530313234453836000000006C
:1013000041542B434D47533D32390D0A0000000034
:1013100030450000363231313930343735323330F0
:101320003744323736303235363043353531423551
:101330000000000061742B6373636C6B3D310D0A18
:10134000000000009401214261742B6373636C6B95
:101350003D300D0A000000002DE9F04F91B0054628
:1013600000244FF001091C210AA800F08EFE9548C8
:101370000088C0F30E0A0020924908809248007845
:10138000242806D19048C078522802D1BAF1140F0F
:1013900003DA002011B0BDE8F08F00240BE0285DD7
:1013A0002C2806D10AA820F8194009F101001FFADB
:1013B00080F9601C84B25445F1DBBDF83000BDF803
:1013C0002E10401A012806D0BDF83400BDF83210A6
:1013D000401A012801D10020DCE74FF0000BBDF8D6
:1013E0003000BDF82E10401AC01EC6B2BDF82E0047
:1013F000401C84B230E0285D2E2801D1601C84B2EC
:10140000304603F047F902460B46CDE900010020C3
:101410006E4902F075F9CDE90401295DA1F13000B2
:1014200003F021F9CDE90201DDE9042303F082F99B
:1014300007468846584603F016F93A464346CDE932
:10144000060102F09FFECDE9080103F0AFF88346E4
:10145000701EC6B2601C84B2BDF83000A042CADC67
:10146000584603F000F907460022594B02F046FFA8
:10147000584A03C2BDF83000401C285C5649087029
:101480004FF0000BBDF83400BDF83210401AC01EFA
:10149000C6B2BDF83200401C84B22FE0285D2E2871
:1014A00001D1601C84B2304603F0F4F807463A4696
:1014B0000B460020454902F023F9CDE90201295DE0
:1014C000A1F1300003F0CFF8CDE90001DDE90223FE
:1014D00003F030F9CDE90601584603F0C4F8CDE930
:1014E0000401DDE9062302F04DFECDE9080103F019
:1014F0005DF88346701EC6B2601C84B2BDF834002D
:10150000A042CBDC584603F0AEF807460022304B31
:1015100002F0F4FE314A03C2BDF83400401C285CDE
:101520002F490870012035E72DE9F04F87B00446B8
:101530000D462046294603F039F8642190FBF1F866
:10154000404603F090F806460F462046294603F031
:101550002DF8642190FBF1F201FB1200059003F0DD
:1015600082F8824600221F4B02F0C8FE80463246B7
:101570003B4602F007FE06460F462046294603F08A
:1015800015F8019003F06FF8804622462B4603F0D1
:1015900005FA0022144BCDE9020103F0CBF8824694
:1015A0000022124B02F0AAFE32463B46CDE904016E
:1015B00002F0E8FD06460F463046394607B0BDE862
:1015C000F08F00000C000020E0010020000024400B
:1015D000006AF840200000201100002018000020C0
:1015E0001000002000004E400088C340804F224180
:1015F000874840798649097900EB012000B2854986
:1016000008808348C0798249897900EB012000B2C3
:10161000804948807E48407A7D49097A00EB012064
:1016200000B27C4988807A48C07A7949897A00EB8F
:10163000012000B27749C8807548407B7449097B16
:1016400000EB012000B2734908817148C07B7049EA
:10165000897B00EB012000B26E494881704710B5CC
:1016600000226B21D02000F014FA10221C21D0207F
:1016700000F00FFA10221B21D02000F00AFA10BD52
:1016800010B500F00AF9D02000F0A7F900F043F9F6
:101690003B2000F0A2F900F03EF900F0FEF8D12066
:1016A00000F09BF900F037F900F0C8F958490871CB
:1016B00000F057F900F0C2F95549487100F06FF990
:1016C00000F00AF900F0E9F8D02000F086F900F007
:1016D00022F93D2000F081F900F01DF900F0DDF85D
:1016E000D12000F07AF900F016F900F0A7F9484986
:1016F000887100F036F900F0A1F94549C87100F091
:101700004EF900F0E9F800F0C8F8D02000F065F9D3
:1017100000F001F93F2000F060F900F0FCF800F063
:10172000BCF8D12000F059F900F0F5F800F086F986
:101730003749087200F015F900F080F93449487211
:1017400000F02DF900F0C8F800F0A7F8D02000F064
:1017500044F900F0E0F8432000F03FF900F0DBF836
:1017600000F09BF8D12000F038F900F0D4F800F038
:1017700065F92749887200F0F4F800F05FF9244910
:10178000C87200F00CF900F0A7F800F086F8D0203D
:1017900000F023F900F0BFF8452000F01EF900F03A
:1017A000BAF800F07AF8D12000F017F900F0B3F899
:1017B00000F044F91649087300F0D3F800F03EF940
:1017C0001349487300F0EBF800F086F800F065F874
:1017D000D02000F002F900F09EF8472000F0FDF85C
:1017E00000F099F800F059F8D12000F0F6F800F078
:1017F00092F800F023F90649887300F0B2F800F07F
:101800001DF90349C87300F0CAF800F065F810BD6F
:1018100028000020E8020020142000BF0100A0F1F1
:101820000102D0B2FAD1704700B5B648806940F0E5
:101830000800B4498861B448006820F00F00B2493C
:1018400008600846006840F003000860AE480C30AD
:10185000006840F00100AC490C310860AA480068FB
:1018600020F0F000A84908600846006840F0300009
:101870000860A5480C30006840F00200A2490C3115
:1018800008600120A1490860FFF7C6FF0120A049B8
:10189000C1F88001FFF7C0FF00BD00B59A4800689D
:1018A00020F00F00984908600846006840F00300E7
:1018B000086001209549091F0860FFF7ADFF01206E
:1018C0009349C1F88401FFF7A7FF00208F49091F42
:1018D0000860FFF7A1FF00BD00B58B48006820F04D
:1018E0000F00894908600846006840F0030008605E
:1018F00000208649091F0860FFF78EFF01208449F8
:10190000C1F88401FFF788FF01208049091F0860A2
:10191000FFF782FF00BD00B500237B48006820F080
:101920000F00794908600846006840F00800086028
:10193000012076490860FFF76FFF07E0581CC3B22B
:10194000FE2B03DDFFF7C8FF012000BD6F48843880
:1019500000680028F2D16D490860FFF75DFF0020A4
:10196000F3E700B56848006820F00F00664908609A
:101970000846006840F00300086000206349091F22
:101980000860FFF749FF01206149C1F88401FFF7B2
:1019900043FF00205D490860FFF73EFF00BD00B532
:1019A0005948006820F00F00574908600846006851
:1019B00040F00300086001205449091F0860FFF748
:1019C0002BFF01205249C1F88401FFF725FF0020B9
:1019D0004E490860FFF720FF00BD10B503464A4896
:1019E000006820F00F00484908600846006840F091
:1019F00003000860002413E0002044490860FFF75A
:101A00000BFFD8094249C1F880015806030EFFF7C1
:101A100003FF01203D490860FFF7FEFE601CC4B2D1
:101A2000082CE9DB002039490860FFF7F5FE0120AA
:101A30003749C1F88001FFF7EFFE10BD10B53248FD
:101A4000006820F00F00304908600846006840F048
:101A50000800086000202D490860FFF7DDFE002423
:101A600011E0012029490860FFF7D6FE2848D0F888
:101A7000000140EA4300C3B2002024490860FFF798
:101A8000CBFE601CC4B2082CEBDBFFF7C5FE18468A
:101A900010BD70B506460C461546FFF7FEFE3046F3
:101AA000FFF79BFFFFF737FF2046FFF796FFFFF793
:101AB00032FF2846FFF791FFFFF72DFFFFF70CFFDE
:101AC00070BD70B504460D46FFF7E7FE2046FFF7F0
:101AD00084FFFFF720FF2846FFF77FFFFFF71BFF7C
:101AE000FFF7DBFE611CC8B2FFF777FFFFF713FFBC
:101AF000FFF7A4FF0646FFF752FFFFF7EDFE304663
:101B000070BD000000100240000C014084812142A1
:101B1000008021422DE9F05F05460E46624880694B
:101B200040F00800604988616048006820F47F4008
:101B30005E4908600846006840F40B4008605A4857
:101B4000C06940F480205849C8610846006940F4E3
:101B5000802008610846006920F480200861300177
:101B600003F03CFA8146524905FB01F003F036FAD6
:101B70008246494603F050F90746384603F00EFA0C
:101B800084B2204603F02AFA8346394603F006FB66
:101B900082464FF0834103F035FA814603F0FEF9A7
:101BA00080464FF6FF7000EA041404EB080084B28C
:101BB00040480480001D008842F20C0108433D4962
:101BC000091D08800846008840F480700880084697
:101BD000008840F0200008800223272203211846B5
:101BE000FEF7DCFBBDE8F09F32480838008800F0C3
:101BF000200000B970472F48001F00882E492F4A47
:101C00001278885408462D490978405C2C49097897
:101C100008442B4908702948007848B926482749C4
:101C20000978405C5A2803D101202449087039E022
:101C300022480078012809D11F4820490978405CD2
:101C4000BB2803D102201D4908702BE01B480078F7
:101C5000022809DB19480078032805DA17480078BC
:101C6000401C164908701DE014480078032814D160
:101C7000114812490978415C104A1278805C104A78
:101C80001278101A814208D101200E4908700020F4
:101C90000B4908700949087004E0002007490870E2
:101CA0000749087000BFA5E700100240040C01407E
:101CB00040420F0008480040380000203D0000204E
:101CC0003E0000203C0000202DE9F0478CB00025AC
:101CD000002689480088401C87490880874800887A
:101CE0008749088087480088874908808749B1F973
:101CF000040002F0B8FC074600224FF0804301F0D8
:101D0000FFFCCDE906018149B1F9020002F0ABFC0C
:101D100000224FF08043CDE9000101F0F1FCCDE954
:101D200002017A49B1F9000002F09DFC00224FF057
:101D30008043CDE9000101F0E3FC0746DDE9022321
:101D400002F020FACDE90401DDE9062302F01AFAD7
:101D5000CDE9080102F0C4F9CDE90A0102F056FC10
:101D6000664908806949B1F90A0002F07CFC07461F
:101D700000224FF0804301F0C3FCCDE90601634926
:101D8000B1F9080002F06FFC074600224FF08043D3
:101D900001F0B6FCCDE902015C49B1F9060002F0A0
:101DA00062FC074600224FF0804301F0A9FCCDE918
:101DB0000001DDE9022302F0E5F9CDE90401DDE9E6
:101DC000062302F0DFF9CDE9080102F089F9CDE937
:101DD0000A0102F01BFC4B49088048490988484A1F
:101DE0001288881A002801DB014600E041421FFAF0
:101DF00081F944490988444A1288881A002801DB7D
:101E0000014600E041421FFA81FA41480078142857
:101E100002D100203E4908703E483D49097820F82B
:101E200011903D483A49097820F811A038480078C7
:101E3000401C374908700025002409E0354830F877
:101E40001400B0F57A6F01DD681CC5B2601CC4B225
:101E5000142CF3DB002600240AE02F4830F814008D
:101E600040F2DC51884201DD701CC6B2601CC4B275
:101E7000142CF2DB052D14DD032E12DD002408E006
:101E80000020244921F81400234921F81400601C83
:101E9000C4B2142CF4DB0120204908700CB0BDE85A
:101EA000F0870020FAE710B5FFF70EFF40B11B489E
:101EB0000078401C194908700F48008818490880AC
:101EC00016490978A9B10C490988154A1288881A57
:101ED000002801DB014600E04142B1F5C87F08DD82
:101EE00000200F490880044908800C49087001202F
:101EF00010BD0020FCE700004C0000204400002042
:101F0000420000204800002046000020E802002097
:101F100040000020F40200201C03002041000020AB
:101F20004A0000201948806940F00800174988617C
:101F30001748006820F0704015490860084600689E
:101F400040F04050086012480830006840F40040FB
:101F50000F490831086070472DE9F04107460C46EB
:101F6000154600260EE000200A4908603846FEF7B4
:101F7000DDF901200849C1F8BC012046FEF7D6F979
:101F8000701CC6B2AE42EEDBBDE8F081001002402C
:101F9000040C0140BC812142008021421F4880691D
:101FA00040F004001D4988611D48006820F470203D
:101FB0001B4908600846006840F440300860184833
:101FC0000C30006840F0100015490C3108601448CE
:101FD000006820F47000124908600846006840F468
:101FE000401008600E480C30006840F020000C499A
:101FF0000C3108600A48006820F070400849086009
:102000000846006840F04050086005480C30006801
:1020100040F0800002490C31086070470010024017
:1020200000080140704700001CB50C46064B7B447D
:1020300069460090204600F014F9044600206946E5
:1020400000F022F920461CBD5702000010B5431CC9
:1020500002E010F8011B71B18107FAD14FF0013293
:1020600002C88C1A8C4314EAC211F9D0C01A0A06AD
:1020700003D0C01E10BDC01A10BD0A0401D0801EBE
:1020800010BD0902FCD0401E10BD4FF0000200B58B
:10209000134694469646203922BFA0E80C50A0E88B
:1020A0000C50B1F12001BFF4F7AF090728BFA0E839
:1020B0000C5048BF0CC05DF804EB890028BF40F805
:1020C000042B08BF704748BF20F8022B11F0804F47
:1020D00018BF00F8012B7047704770477047704772
:1020E00010B500F0B7FA006810BD10B5044600F056
:1020F000B1FA046010BD70B5044685690068C10678
:1021000001D5302600E02026C00707D070BDD4E9F5
:10211000012130469047206A401C20626D1EF6D592
:1021200070BD70B5044685690078C00707D170BDE1
:10213000D4E9012120209047206A401C20626D1EB6
:10214000F6D570BD09684A0501D540B27047C9058A
:10215000FCD500B2704709684A0501D5C0B2704786
:10216000C905FCD580B2704770B50C460546012AFA
:1021700005D02878800600D5EA69002302E0012313
:1021800005E05B1C934202D2E05C0028F9D1A8690B
:10219000E618C01AA861286A184428622846FFF782
:1021A000AAFF04E0D5E9012114F8010B9047B442DD
:1021B000F8D32846FFF7B5FF70BD00002DE9F041C8
:1021C0000646002410687529314615A510D0FFF782
:1021D000B9FF002802DA404212A507E031688A07F9
:1021E00001D511A502E0490704D510A5012401E09D
:1021F000FFF7B1FF00210A2306F1240707E0B0FB37
:10220000F3F203FB1200303078541046491C0028CA
:10221000F5D123462A463046BDE8F04100F063BAC6
:10222000000000002D0000002B0000002000000036
:1022300011680268006A530501D508700AE0D305E9
:1022400001D5088006E0130603D5C217C1E90002D4
:1022500000E008600120704701694A1C02610878AB
:10226000704700B58FB0CDE90131002105910549D6
:102270007944CDE903101146684600F027F90FB004
:1022800000BD0000E5FFFFFF0A6802F8010B0A60CD
:10229000704700002DE9FF5F15468A460446DFF8C7
:1022A000AC80F8440027D8E900103E46CDE9001084
:1022B00010E03AF816106A4602A800F0A4FC411C8F
:1022C00007D02178890603D5E269391891420DD8E3
:1022D0000744761C2078800602D5E069B84205DD07
:1022E000AE42E6DB3AF816000028E2D1A069C01B36
:1022F000A0612046FFF7FFFED8E90010CDE90010ED
:10230000002017E03AF818106A4602A800F07BFC9B
:10231000B0F1FF3F81460BD000250DF1080B05E021
:10232000D4E901211BF8050090476D1C4D45F7D3FA
:1023300008F10100B0428046E4DB206A38442062A4
:102340002046FFF7EEFEBDE8FF9F00007A31000057
:102350002DE9F0418046D21D22F007020025D2E986
:102360000002F52914A612D0002A06DA0023D0EBC9
:10237000030063EB020211A608E0D8F800108B07F7
:1023800001D50FA602E0490701D50EA60125114689
:10239000002408F1240704E000F060F930323A55D7
:1023A000641C50EA0102F7D12B46324621464046D2
:1023B000BDE8F04100F097B9000000002D000000DA
:1023C0002B0000002000000030B4002100F12404A4
:1023D00008E002F00705D208303542EA4372DB0814
:1023E0006554491C52EA0305F3D10468002310A286
:1023F000250708D504F020040C4304D0C469012348
:102400000CA2641EC46130BC00F06DB910B5044666
:1024100021461068FFF79FFE02462046BDE81040A7
:102420000023D1E7D21D22F00701D1E90023CBE739
:102430000000000030000000F0B40D4601880905DE
:1024400002D5214C7C4402E01F4C7C440E34002118
:1024500000F1240608E002F00F071209E75D42EAE6
:1024600003721B097754491C52EA0307F3D102781F
:102470000023120704D5702D06D009B102231134B0
:102480002246F0BC00F02FB901231034F8E770B5F4
:1024900004460D4621461068FFF75DFE02462946B8
:1024A0002046BDE870400023C6E7D21D22F0070396
:1024B000D3E90023C0E70368126843F020030360F8
:1024C0000823C3610023B7E7E02F00002DE9F05F88
:1024D000894604464FF0000ADFF874B1FB44C0F8A7
:1024E00020A02046E1688847002874D0252806D01F
:1024F000D4E901219047206A401C2062F1E70026C0
:102500005F462046E16888472028054607DB312DD5
:1025100005D2781910F8200C08B10643F1E7B0078E
:1025200001D526F00406C4F81CA00027C4F818A0A2
:102530002A2D09D0284601F0DBF838B304EB8708D0
:10254000303DC8F8185019E059F8041B204604EB38
:1025500087029161E1688847012F054618D1E0693B
:10256000002820DA26F020061DE0D8F8180000EB3D
:10257000800005EB40003038C8F818002046E168BC
:102580008847054601F0B4F80028EED1012F0AD0A3
:102590002E2D08D12046E16888477F1C0546022F72
:1025A00046F02006C4DBA069002803DA404246F06A
:1025B0000106A061F00701D026F010066C2D0BD0AB
:1025C000682D09D04C2D39D06A2D35D0742D35D0D9
:1025D0007A2D33D016E038E0E1682F462046884750
:1025E000B842054609D16C2F26D04FF48060E168CF
:1025F000064320468847054604E06C2F1AD04FF466
:10260000807006430DB3A5F14100192802D820358A
:1026100046F400664A462946204626604E46FDF7A7
:10262000C1FD80B101280BD0F61D26F0070000F196
:10263000080956E74020E4E78020D8E70020D6E7E5
:1026400006F104094DE7284652E7206ABDE8F09FED
:10265000702F0000004870474403002030B5B0F1EF
:102660000A024FEA900E71F100034EEA817EB0EB50
:102670000E0061EB91014FEA101E4EEA017E10EB55
:102680000E0041EB11114FEA102E4EEA016E10EBD5
:102690000E0041EB11214FEA104E4EEA014E10EBB5
:1026A0000E0041EB1141401841F100014FEAD0000A
:1026B00040EA41704FEAD10110EB80054FEA8104F6
:1026C00044EA907444EB01046D1944EB0404521B7A
:1026D000A3414FF0000348BF0A3200D530BD401C73
:1026E00041F1000130BD2DE9F0470D469946924673
:1026F000044600F124080168880604D5E06921F049
:102700001001216000E00120A84201DD471B00E02C
:102710000027A1697A1902EB0900081AA061207844
:10272000C00602D42046FFF7E6FC002608E0D4E904
:1027300001211AF806009047206A401C761C20628E
:102740004E45F4DB2078C0060AD52046FFF7D3FCBF
:1027500006E0D4E9012130209047206A401C206225
:10276000381EA7F10107F4DC07E0D4E9012118F8CD
:1027700005009047206A401C2062281EA5F1010533
:10278000F3DC2046FFF7CDFC2078000602D50220BE
:10279000BDE8F0870120FBE770472DE9FF4F0C46AD
:1027A0001E464FF0FF378BB0D2E90001DDF86080A4
:1027B0000A908A46C1F30A5505B93D4600210846EC
:1027C0004FF00000BAF1000F00F4400005DA00EB12
:1027D00080004FF4400101EA50004FEA9059B9F1EE
:1027E000010F00DDB9460A9850EA4A000ED044F6BF
:1027F0001050A5F2FF3545432F14B8F1000F1ED03D
:102800007542291E1EDDC9F100021CE0B8F1010F5E
:102810004FF0000001D0302103E0F24305E02154E5
:10282000401CB042FBDB30460022002121540B99B2
:10283000C1F80880C1E900200FB0BDE8F08FBD1BD2
:102840006D1CDEE74A4600DA694206A800F072FA1B
:1028500006AB93E8070003AB83E8070050460A99EC
:1028600000F01AFB8DE80700A0F500501F3800901B
:102870000398002D09DD42F21F014A46084403A9CE
:102880000390684600F079FD08E0A0F500504A4644
:102890001F3803A90390684600F083FD8DE8070008
:1028A0000004000C03D04FF0FF30410800E0104658
:1028B000B8F1000F03D00022009215461EE0751EED
:1028C00005D4FFF7CBFE303262556D1EF9D5B34605
:1028D0000122084302D000227F1C04E02078302827
:1028E00001D100227F1E002A099786D01DE0112DFC
:1028F00007DAFFF7B3FE303262556D1C50EA010271
:10290000F5D1084302D00098C8B10EE00021681E3E
:1029100005E0235C625C63542254401E491C8142E2
:10292000F7DBAB46A81B401E0990002004F80B0003
:102930000B98099AC0F80880C0E9002B7CE71126A3
:102940004FF0000859E72DE9F04F88460446D21DA4
:1029500022F0070191B0D1E90001CDE90A0100F0B0
:1029600056FE02460B98C00F01D02D2007E02068CC
:10297000810701D52B2002E0202101EAC000032AB3
:10298000099001D0072A05DB03464146204600F0A6
:1029900091F909E12078800601D5E06900E0062080
:1029A000B8F1650F814606D0B8F1660F18D0B8F1BE
:1029B000670F70D131E00020B9F1110F009001DBF9
:1029C000112301E009F101030AAA01A90CA8FFF7EC
:1029D000E4FEDDE90C70002609F10105834647E0BD
:1029E00001204B4600904FF000470AAA01A90CA80D
:1029F000FFF7D3FEDDE90DB00C995D46002610B956
:102A000009F101000D18B9EB050003D4C0F1FF3640
:102A100009F10105A5EB09002BE0B9F1010F01DA7D
:102A20004FF001090020B9F1110F0090484601DD77
:102A3000112300E003460AAA01A90CA8FFF7ADFE86
:102A4000DDE90C704D4600268346207800070AD445
:102A5000AB4500DA5D4601A8012D04DD411911F8EE
:102A6000011C302907D04F4502DA17F1040F04DAB0
:102A7000012082460FE06D1EEEE7002F02DCED1B09
:102A80003E4403E0781CA84200DD7D1CB81B00F129
:102A9000010A4FF000472078000703D4AA4501DB64
:102AA0004FF0FF3A0021B7F1004F0DF143088DF8C8
:102AB000431022D002202B23002F01DA7F422D2346
:102AC0004FF00A0C011EA0F1010000DC47B197FB9A
:102AD000FCF10CFB11720F46303208F8012DF1E7C2
:102AE000A8F1010003702188090501D5452100E006
:102AF0006521A0F1010800F8011C09980FA9A1EBBC
:102B00000807FF1D00B10120411901EBEA70A1691E
:102B10003844081A401EA0612078C00602D420461E
:102B2000FFF7E9FA099828B1D4E901219047206A12
:102B3000401C20622078C00622D52046FFF7DBFA31
:102B40001EE0002E04DBB34502DD01A8805D00E03D
:102B50003020D4E901219047206A401C2062761C75
:102B6000AAF101005FEA000A0AD100F09FF8C068EC
:102B70000168405CD4E901219047206A401C206232
:102B8000281EA5F10105DCDC07E0D4E9012118F8D5
:102B9000010B9047206A401C2062381EA7F10107F4
:102BA000F3DC2046FFF7BDFA022011B045E610B570
:102BB000436913B1AFF3008001E0FFF7D5FA0120BC
:102BC00010BD127800F124010A7000224A7001221F
:102BD000EDE711684FF0FF32E9E710B5436913B133
:102BE000AFF3008001E0FFF755FB012010BD128814
:102BF00000F1240182840022C2840122EDE71168E1
:102C00004FF0FF32E9E770B516460C46054600F076
:102C100045F8036893F80101012806D0FF2C0FD86E
:102C2000185D68B101202C7070BDD3F807013246E1
:102C3000214603442846BDE8704003F207131847B5
:102C40004FF0FF3070BD0000004870474403002083
:102C50007546FFF7F9FFAE4605006946534620F07A
:102C60000700854618B020B5FDF718FBBDE82040E9
:102C70004FF000064FF000074FF000084FF0000B38
:102C800021F00701AC46ACE8C009ACE8C009ACE8EB
:102C9000C009ACE8C0098D467047000010B500F0CF
:102CA00005F8001D10BD00BFB114000000487047BA
:102CB000640300202DE9F0411F4604460326016805
:102CC000072A01F4006004DB08B116A505E016A58B
:102CD00003E008B115A500E015A521F01000206063
:102CE000A069C01EA0610FB1401EA0612046FFF781
:102CF00002FA4FB1D4E9012138469047206A401CBE
:102D00002062C01C206206E0206AFAE7D4E90121B3
:102D100015F8010B9047761EF8D22046FFF701FA0E
:102D2000BDE8F0814E414E006E616E00494E460096
:102D3000696E66002DE9F047814616468AB0324832
:102D400078440DC88DE80D002F487844801C03ACF2
:102D50000DC884E80D0041F69B303722014491FBF9
:102D6000F2F0A0F1800502FB10141B3C02D5644276
:102D7000012000E00020DFF890A080460027FA4400
:102D8000AAF1BA0A0DE0E00709D03246684607EB1F
:102D900047010AEB810100F004FB8DE80700641095
:102DA0007F1C002CEFD1184F7F44A83F18E0E807A4
:102DB00014D007EB04100DF1180A90E80E008AE811
:102DC0000E00C068F04201D198190890324606A959
:102DD00003A800F0E6FA03AB83E807006D10641C5B
:102DE000002DE4D132466946B8F1000F03A802D0A5
:102DF00000F0C3FA01E000F0D4FAC9E90001C9F813
:102E000008200AB0BDE8F087A82700000446AFF309
:102E100000802046FDF729FA4FF0013C50F8042BC2
:102E200051F8043B9A4221D1A2EB0C03934313EADD
:102E3000CC1317D150F8042B51F8043B9A4215D10A
:102E4000A2EB0C03934313EACC130BD150F8042BE1
:102E500051F8043B9A4209D1A2EB0C03934313EAC5
:102E6000CC13DBD04FF00000704700BFD01A01BA7E
:102E7000B1FA81F101F0180122FA01F0CB40C1F161
:102E80002001DBB2C0B2C01A2CFA01F3D11A91436F
:102E900011EAC311E6D170475FEA400C08BF91F018
:102EA000000F4FEA8C234FEAC12243EA51514FEA07
:102EB0001C5018BF00F5F0404FEA300018BF41F039
:102EC00000415FEA6C5C00F02980BCF1FF3F08BF65
:102ED00040F080407047130C06BF12044FF0100CF6
:102EE0004FF0000C130E04BF12020CF1080C130F6C
:102EF00004BF12010CF1040C930F04BF92000CF1FB
:102F0000020CD30F04BF52000CF1010C11464FF01C
:102F10000002A0F11F00A0EB0C00704711F0004F61
:102F200008BF704731F000413FF4D5AF0B0C06BF2E
:102F300009044FF0100C4FF0000C0B0E04BF0902F7
:102F40000CF1080C0B0F04BF09010CF1040C8B0FE2
:102F500004BF89000CF1020CCB0F04BF49000CF137
:102F6000010CCCF12003A0EB0C0022FA03F302FACF
:102F70000CF241EA030100F10100704720F07F4CA0
:102F800080EA030023F07F47ACEB070303F57C5393
:102F900000F0004003F1FF032DE980494FEA154B93
:102FA00009B44FEA144325EA0B4E24EA03480FF212
:102FB000042606EB132749083E785FEA320203FB3A
:102FC0000667C7F5000707FB06F64FEA54374FEAD6
:102FD000D64606F1020607FB066CCCF1005C4FEA10
:102FE0001C472CEA074C07FB06F40CFB06F504EB28
:102FF00015464FEA961634BF00204FF000404FEAC6
:10300000D13706FB07FC4FEA1C4C0CFB0BF7D21B1D
:1030100003FB0CF761EB07010CFB0EF7B0EB07406D
:1030200072EB17420CFB08F734BFA2EB0742B2EB7E
:10303000074261EB17414FEA0C444FEA910706FB48
:1030400007FC4FEA1C4C0CFB0BF7B0EBC74072EBD4
:10305000573203FB0CF734BFA2EBC742B2EBC742B7
:1030600061EB57310CFB0EF7B0EBC70072EB5772F8
:103070000CFB08F734BFA2EBC702B2EBC70261EB4F
:103080005771039F4FEA816141EA921104EBCC042E
:103090004FEAD1374FEA826206FB07FC42EA901200
:1030A0004FEA80604FEA1C4C0CFB0BF7D21B03FB72
:1030B0000CF761EB07010CFB0EF7B0EB074072EB6E
:1030C00017420CFB08F734BFA2EB0742B2EB0742F2
:1030D00061EB17414FEA8C554FEA910704EB9C24B2
:1030E00006FB07FC4FEA1C4C0CFB0BF7B0EBC74090
:1030F00072EB573203FB0CF734BFA2EBC742B2EBC3
:10310000C74261EB57310CFB0EF7B0EBC70072EB17
:1031100057720CFB08F734BFA2EBC702B2EBC70231
:1031200061EB577115EB4C254FEA816141EA921131
:103130004FEA82624FEAD13742EA901206FB07FC5F
:1031400044F100044FEA80604FEA1C4C0CFB0BF783
:10315000D21B03FB0CF761EB07010CFB0EF7B0EB86
:10316000074072EB17420CFB08F734BFA2EB074293
:10317000B2EB074261EB174115EB1C154FEA8131A9
:1031800041EA92414FEA823242EA90424FEA80306D
:103190004FEA0C7644F1000448EA03434EEA0B4838
:1031A0004FF0000EB2EB080C71EB030724BF624630
:1031B00039464EEB0E0E4FF0000B001852414941BC
:1031C0004BEB0B0BB2EB080C71EB03077BF1000B25
:1031D00024BF624639464EEB0E0E4FF0000B00182E
:1031E000524149414BEB0B0BB2EB080C71EB03075F
:1031F0007BF1000B24BF624639464EEB0E0E51EABE
:10320000020718BF46F0010616EB0E7655F10002D4
:1032100054F1000103D5BDE88901BDE80088BDE88F
:103220008901B619BDE80048524141EB0101A3F103
:103230000103704780807F7E7D7C7B7A797877760A
:1032400076757473727171706F6E6E6D6C6C6B6A83
:103250006A69686867666665646463636261616021
:10326000605F5F5E5E5D5D5C5C5B5B5A5A5959589E
:103270005857575656555555545453535252525108
:10328000515050504F4F4F4E4E4D4D4D4C4C4C4B5E
:103290004B4B4A4A4A4949494848484747474746A5
:1032A00046464545454444444443434343424242E1
:1032B00042414141002B26D4770021D01CB54FEA72
:1032C000370703B44FF010004FF010014FF000002B
:1032D0000FBC0BF1010BBDE81040BBF1010F08BFA3
:1032E0005FEA170722BF12F1010211F101014FF04D
:1032F000004143F1000300F0004043EA0000704742
:10330000F9D35708DAE746EA064613F1400F4FEAC9
:1033100016461FDD13F1200FDFBF16430A460021BA
:1033200020335B42C8D0C3F1200746EA064602FAC2
:1033300007F74FEA164646EA0706C3F1200722FAC6
:1033400003F201FA07F721FA03F14FF0000342EA12
:103350000702B1E746EA020646EA06464FEA164683
:1033600046EA0106BCBF46EA0646360C4FF00003AB
:103370004FF000024FF000019EE72DE9C048934650
:1033800030B491E8380007C831EA400C48BF34EA4D
:10339000430C03D5FFF7F2FDFFF78CFFF0BCBDE84F
:1033A00000882DE9C048934630B491E8380007C83A
:1033B00010F0804F08BF13F0804F03D100F005F8E4
:1033C000FFF778FFF0BCBDE8008820F07F4780EA77
:1033D000030023F07F4C07EB0C03A3F57C5300F0B4
:1033E0000040A3F1FE0392F0000F00F0B38095F0CF
:1033F000000F00F077802DE901494FEA11404FEAB4
:10340000144621EA004800FB06FC24EA064708FBB4
:1034100006F607FB08F800FB07F718EB06484CEB2D
:10342000164C4FEA124B18EB07484FEA15464CEB87
:10343000174022EA0B4E0BFB06FC25EA06470EFB63
:1034400006F607FB0EFE0BFB07F71EEB064E4CEBDA
:10345000164C4FF000061EEB074E4CEB174B18EBCB
:103460000B0840F1000018EB0E0B58EB000840F180
:1034700000008F1A4FF000013CBFC943661B14BF08
:10348000B5EB040C00213CBFC943F61B4FEA1744BF
:103490004EEA8E0E27EA04454FEA1C4704FB0762FA
:1034A0002CEA074C05FB07F70CFB05F604FB0CFCAC
:1034B00016EB074642EB174216EB0C4642EB1C425A
:1034C0001BEB060658EB0202414146EA9E0601D577
:1034D000BDE80189B619524141EB0101A3F1010395
:1034E000BDE801894FEA14454FEA114724EA054631
:1034F00021EA074C05FB07F406FB07F70CFB06F176
:1035000005FB0CFC11EB074144EB17444FEA124753
:1035100011EB0C4144EB1C4422EA074C05FB07F27B
:1035200006FB07F70CFB06F605FB0CFC16EB074643
:1035300042EB174216EB0C4642EB1C456A1854F15D
:10354000000148BF7047B619524141EB0101A3F198
:103550000103704795F0000F37D04FEA11424FEA50
:10356000144721EA024624EA074C02FB07F106FB56
:1035700007F70CFB06F402FB0CFC14EB074441EBD1
:1035800017414FEA154714EB0C4441EB1C4125EA67
:10359000074C02FB07F506FB07F70CFB06F602FBE0
:1035A0000CFC16EB074645EB174516EB0C4645EBB6
:1035B0001C42121951F1000148BF7047B61952411F
:1035C00041EB0101A3F1010370474FEA14454FEAB3
:1035D000114724EA054621EA074C05FB07F106FBE3
:1035E00007F70CFB06F24FF0000605FB0CFC12EB94
:1035F000074241EB174112EB0C4251EB1C4148BF13
:103600007047921841EB0101A3F101037047490093
:1036100050EAC12018BF04204A0D18BF40F0010035
:1036200040F2FF72B2EB515F08BF40F00200012888
:1036300008BF052070472DE9F0414F1E00EBC70180
:103640000446D1E9000115461E4637F006020DD0AA
:103650002A46334601F06EF87F1E04EBC703D3E918
:10366000002300F08FFD37F00602F1D1022F25D0A4
:10367000042F13D0062F18BFBDE8F0812A46334629
:1036800001F058F8D4E90A2300F07CFD2A463346BD
:1036900001F050F8D4E9082300F074FD2A463346BF
:1036A00001F048F8D4E9062300F06CFD2A463346C1
:1036B00001F040F8D4E9042300F064FD2A463346C3
:1036C00001F038F8D4E9022300F05CFD2A463346C5
:1036D00001F030F8D4E90023BDE8F04100F052BD1C
:1036E000024A0020110701F00CBE000001FDFFFF9F
:1036F00030380A2801D201207047002070470000AE
:103700002DE9F04D16460F460546020094B01C46C2
:1037100021F0004123F0004014BF4FF0010C4FF0A6
:10372000000C0CEB470CFE4B0CEB03084FEA630C50
:10373000E0452DD35FEA060818BF4FF0010808EBFB
:1037400044089844F74B984522D3F74B50EA060CAF
:1037500002D09F4205D14AB914B000201946BDE8F5
:10376000F08D002A08BF4FF0000C01D04FF0010C83
:103770000CEB470313F5001F0AD8002E14BF4FF0BF
:10378000010C4FF0000C0CEB440313F5001F08D99B
:1037900014B03246234628463946BDE8F04D00F0C5
:1037A000F1BCDFF888B34FF0000A002FB8BF5845CE
:1037B00023DADF4B9842A8BF4FF0020A1DDADA4B3A
:1037C00083421ADCDB4B03EB2053142B08DDC3F1DF
:1037D000340C26FA0CF303FA0CFCB4450DD108E0C6
:1037E0005EB9C3F1140C20FA0CF303FA0CFC844507
:1037F00003D103F00103C3F1020A51EA020321D10C
:10380000002C1FDA002F18BFBAF1020F02D0BAF154
:10381000010F0BD00220FEF768FC14B00022BDE8B7
:10382000F04D13461046C04900F068BD0220FEF777
:103830005CFC14B02A463B46BDE8F04D0020BA4976
:1038400000F05CBD33006DD1584525D107F18040B3
:1038500010F5801001BF002A0020B34914B008BF42
:10386000BDE8F08DB048884207DC002CA1BF1846A7
:10387000214614B0BDE8F08D07E0002CBFBF18460C
:1038800084F0004114B0BDE8F08DAB497944D1E932
:10389000000114B0BDE8F08DDFF88CC2604526D180
:1038A000002C1FDA19B1594513D1DAB90AE0002A00
:1038B00040F0DA829D4A394614B0002062F31E01BE
:1038C000BDE8F08D0020394614B060F31E01BDE85C
:1038D000F08D07DA14B03B46BDE8F04D002061469C
:1038E00000F00CBD14B010463946BDE8F08D5945C6
:1038F00018DAB4F1804F0DD0A4F10053B3F1FF53A7
:1039000010D13B1E0EDB14B01046BDE8F04D194639
:1039100000F0E6BB3B4614B01046BDE8F04D19463A
:1039200000F008BF27F00043A2BBE1B1594538D1F0
:10393000002F06DD002CA1BF0020594614B0BDE8C1
:10394000F08D002F01DD002C1FDB002F16DA002C7C
:1039500014DBBAF1010F4FF0000014BF734977492F
:1039600014B0BDE8F08DBAF1020F18BF002F0CD0D3
:10397000BAF1010F09D1002F07DA0CE0002FB8BF10
:10398000002C0EDABAF1010F05D0002014B0014668
:10399000BDE8F08D05E014B000204FF00041BDE817
:1039A000F08D4FF0010C0CEBE7720D9252EA0A0217
:1039B0000BD0634A90427DDD624B634A984216DD2C
:1039C0008A420EDB002C1CDB2CE00120FEF78DFB75
:1039D00014B00022BDE8F04D13461046114600F029
:1039E0008DBC5148884202DC002C0ADC1AE091426E
:1039F00002DA002C16DA04E04B4B99421EDD002C53
:103A000010DD0220FEF771FB40F2013200204FF082
:103A1000E04101F076FC454A14B061F31E02114604
:103A2000BDE8F08D0220FEF760FBFFF759FE3E4A2D
:103A300014B061F31E021146BDE8F08D0022284645
:103A4000394601F09DF8054688466FF0010201F005
:103A500058FC4FF055323D4B00F0A0FF2A4643463C
:103A600000F068FE00223A4B00F098FF07468B46B4
:103A70002A4643461046194600F05CFE3A465B462D
:103A800000F058FE09910C904FF0C042314B28468F
:103A9000414600F04FFE07468B462F4A2D4B0999B1
:103AA0000C9800F047FECDE901102C4A2C4B28461B
:103AB000414600E019E000F03DFEDDE9013201F091
:103AC0005FF83A465B460591089000F05BFB0025E5
:103AD00088463A465B46284601F052F8059B089A0C
:103AE00000F05CFF024600F076B90020B1F5801FBF
:103AF00007DA35222846194601F003FC05466FF027
:103B0000340000EB2150A0F2FF300190C1F313000C
:103B100040F07F6141F0405102911249884223E018
:103B2000FFFF1F00FFFF0F000000F03F0000F07FCD
:103B30000000404301FCFFFFD81B00000000F0FF25
:103B40000000E0410000F043FFFFEF3F5555D53F37
:103B50000000E03F4715F73FFE822B6544DF5DF82C
:103B60000BAE543E8E980300D8BF4FF0000B0EDD15
:103B7000FE498142C8BF4FF0010B08DC01984FF0AD
:103B8000000B401C01900298A0F580100290F848AC
:103B90000299784400EBCB000B911090D0E9002300
:103BA000284600F0EDFF009010980791D0E900231F
:103BB00028460B9900F0E6FA02460B460020ED4934
:103BC00000F09CFB05910B4602460890079900986F
:103BD00000F0B0FD0690E848884600277844029936
:103BE00000680E904FF0005040EA610000EB8B40FF
:103BF00000F5002110980291D0E900230E9800F002
:103C0000BFFF2A460B9B00F0C9FE3A46434600F030
:103C100091FD05460B9138464146029B0E9A00F0F5
:103C200089FD079B009A00F0B9FE2A460B9B00F025
:103C3000A7FF059B089A00F07DFD0B911090069A56
:103C400043461046194600F075FD05460246CB482E
:103C50000B46009106217844FFF7EDFC009B2A46B5
:103C6000029108901046194600F064FD029B089AE4
:103C700000F060FD05460591434638461946069A10
:103C800000F080FA0B9B109A00F054FD2A46059B29
:103C900000F078FA3A4643460591089010461946D6
:103CA00000F048FD0022B64B00910C9000F06AFA3B
:103CB000059B089A00F066FA0D463A46B04B384626
:103CC00000F05EFF009B0C9A00F05AFF059B089ADB
:103CD00000F064FE11913A460C902B461046414686
:103CE00000F028FD079100904346069A11990C9820
:103CF00000F020FD804603912B463A460B99109820
:103D000000F018FD4246039B00F03CFA0591804606
:103D10000B4602460799009800F034FA00200F463F
:103D20000546079B009A00F02BFF4246059B00F0DA
:103D300035FE804609914FF06042924B2846394645
:103D400000F0F8FC009102908F4A8E4B4046099992
:103D500000F0F0FC804603918C4A8D4B2846394692
:103D600000F0E8FC4246039B00F00CFA894A7A44D2
:103D700002EBCB03D3E9002300F004FA0690039191
:103D8000019800F070FC0746DDE902030591069AF0
:103D9000009900F0F7F9804A7A4402EBCB0BDBE99B
:103DA000002300F0EFF93A46059B00F0EBF90025FF
:103DB00088463A462846059B00F0E2FEDBE90023F0
:103DC00000F0DEFE009B029A00F0DAFE039B069AEA
:103DD00000F0E4FD0246002006900D98654FAAF120
:103DE0000103184301D16D4F069000200B4600904F
:103DF0003046214600F09EFC82468B4623463046E4
:103E00001946009A00F0BCFE2A46434600F092FC98
:103E100052465B4600F0B6F906468A462A464346B5
:103E20002146009800F086FC04460D463246534673
:103E300000F0A8F95A4A8B46914226DBABEB02030D
:103E400053EA000210D122462B4600F099FE80462C
:103E50000591544A544B3046514600F093F942467E
:103E6000059B00F065FD30D20220FEF73EF940F2DE
:103E7000013200204FF0E04101F043FA0A46394692
:103E800014B062F31E01BDE8F08D484B2BF00042E8
:103E90009A421AD3464A0BEB020353EA000208D1B6
:103EA00022462B4600F06CFE3246534600F040FDA1
:103EB0000BD80220FEF719F9FFF712FC0A46394623
:103EC00014B062F31E01BDE8F08D2BF000403949BB
:103ED000394A01EB20514FF00008824223DA481C96
:103EE0004FF4801121FA00F05844344AC0F30A51CB
:103EF0007A44334BA1F2FF31CB4020EA0303C0F3F5
:103F0000130040F4801CC1F1140012682CFA00F870
:103F1000BBF1000FB8BFC8F100082046294600F0E9
:103F20002FFE04460D4622462B463046514600F0F1
:103F300029F94FF0000B5A46224B5846059100F0E4
:103F4000F9FB00900791204A204B5846059900F054
:103F5000F1FB0491029022462B465846059900F049
:103F60000FFE3246534600F019FD31E07AB60B00E1
:103F7000021800000000F03F881800006E170000D3
:103F80000000084009C7EE3FFD033ADCF5015B1471
:103F9000E02F3EBE461600000C1600000000F0BFE9
:103FA00000009040FE822B654715973C00CC904066
:103FB00000346F3F01FCFFFF0000E03F741500007C
:103FC000FFFF0F00432EE63F396CA80C615C20BE5A
:103FD0003F4A404B00F0AEFB049B029A00F0D2F83F
:103FE00006468A46079B009A00F0CCF804460D4628
:103FF000079B009A00F0C4FD3246534600F0CEFC09
:10400000064622462B4609911046194600F092FBBF
:104010008346024630488A460B4605217844FFF71E
:104020000AFB5A46534600F085FB22462B4600F019
:10403000B5FC82468B46324620462946099B00F055
:1040400079FB3246099B00F09DF80591089000220B
:104050004FF080435046594600F092FD06460091CD
:1040600052465B462046294600F064FB3246009BE0
:1040700000F044F9059B089A00F082FD22462B4689
:1040800000F07EFD0022154B00F088FC0D46044632
:1040900001EB08510815002810DC4246204629464D
:1040A00001F02FF9FFF7B3FA042808BFFFF718FB58
:1040B00042462046294601F024F9044606980B465C
:1040C00014B022463946BDE8F04D00F033BB000085
:1040D000EF39FAFE422EE63FD81300000000F03F11
:1040E0002DE9F04106460F4600F064FC04000D4641
:1040F00018BF0120284320F00040C0F17F6000F18C
:10410000E040C00F0ED0301C18BF0120384320F013
:104110000040C0F17F6000F1E040C00F04BF01200B
:10412000FDF7E3FF20462946BDE8F08110B50029E0
:104130000AD00878002807D005487844FEF76CFEBE
:10414000002801D0002010BD0248784410BD0000B6
:10415000EA130000E213000010B500290AD0087825
:10416000002807D005487844FEF756FE002801D005
:10417000002010BD0248784410BD0000DA13000092
:10418000D213000010B591EA030F48BF83F000433B
:1041900000F1FE84841A71EB030C05D2121943EB73
:1041A0000C03001B61EB0C01DFF824E14FEA115412
:1041B000A4EB135C1EEA430F18BF9EEA445F73D062
:1041C00023EA0E03DCF1200E21EA045143F48013AC
:1041D00032D322FA0CFE10EB0E0023FA0CFE41EB58
:1041E0000E01CCF1200E03FA0EFE10EB0E0051F181
:1041F0000001B1F5801FCCF1200E32D201EB045149
:1042000012FA0EF2BDE8104058BF7047401C38BF8C
:104210005FEA420218BF7047002814BF20F0010077
:1042200041F100014FEA410313F5001F38BF704709
:10423000A1F1C04100F076BB012A43EB0302ACF1CF
:10424000200CDCF11F0E32BF4FF0000E23FA0CF3EE
:1042500010EB030041EB0451B4EB115FD0D0A1EBA4
:10426000045101F5801149085FEA300001EB045167
:104270000ED350F1000038BF12FA0EFE08D1BDE88F
:104280001040C9E7401C38BF5FEA4202CAD1C3E709
:10429000BDE810404FEA410313F5001F38BF7047D7
:1042A000A1F1C04100F03EBB9EEA445F08D011EA94
:1042B0005E0FBDE8104004BF01F0004100207047D0
:1042C000BDE8104070B500F0DFFA00BF64FBBE3EF1
:1042D0000000E0FF02494FF0000000F0E0BF00BF27
:1042E0000000F87F491058BFC1F140415B1058BF32
:1042F000C3F140438B42EFF3008070472DE9C0418A
:1043000030B4DFF8A0C23CEA111418BF3CEA131421
:1043100000F0EC8081EA03051CEA111444EAD5742C
:1043200018BF1CEA131500F0C780A4EB05044FF07A
:10433000004545EAC12145EAC32341EA505143EA19
:10434000525304F17F74994204F500344FEAC020BF
:104350004FEAC22208BF904200F09C804FEA1365EA
:104360000FF24016765D4FEA134506FB05F7C7F1DD
:10437000807706FB07F74FEAD737A7FB036876423B
:10438000C8F58038A7FB06CE38BFA8F1010807FBA7
:1043900008E64FF0000EA6FB028CE6FB03CEDCF134
:1043A000000CCEF1004E38BFAEF1010EA6FB0C584A
:1043B0004FF000074FF00005E6FB0E87A1FB08C693
:1043C000A0FB07CE16EB0E0645F10005E1FB0765E5
:1043D00015F1E04E7EBFA4F580345FEA46066D41DC
:1043E00016F1800745F100054FEA17274FEA0666E8
:1043F00047EA0567A6F1DE46B6F1805F4FEA15256C
:104400001FD9384624F0010C05EBC471BCF1FE6FD6
:1044100001EB0C1102D8F0BCBDE8008124425CBF66
:1044200001F5801E9EEAC47F02D4F0BCBDE8008185
:10443000244238D4F0BCA1F1C041BDE8004100F0F5
:1044400071BA4FEAD22242EA43524FEAD323A7FB82
:1044500002864FEAD02040EA415007FB03661EEA7D
:104460000E0F4FEAD12105FB026658BFA6EB00569E
:10447000B6EB00564FEA520E4EEAC37E18EB0E0E14
:1044800056EB530EBDD518EB02085E417F1C55F16B
:104490000005B6E74FF480154FF000074FF0000617
:1044A0004FF00008ADE7F0BC4FF0000001F1C04153
:1044B00001F00041BDE8008111EA0C1F0CEA131560
:1044C00000D00CE013EA0C1F00F025804FF0000034
:1044D000F0BC81EA030101F00041BDE80081F0BCBD
:1044E00081EA0301BDE8004100F01CBAF0BCBDE860
:1044F000004170B500F0C8F9097EFC3E00F007B835
:1045000081EA03014FF0000001F00041704781EAA9
:10451000030100F007BAF0BC4FF000002249BDE8EB
:1045200000417047FFFDFBF9F7F5F4F2F0EEEDEB1B
:10453000E9E8E6E4E3E1E0DEDDDBDAD8D7D5D4D3A1
:10454000D1D0CFCDCCCBCAC8C7C6C5C4C2C1C0BFED
:10455000BEBDBCBBBAB9B8B7B6B5B4B3B2B1B0AFF3
:10456000AEADACABAAA9A8A8A7A6A5A4A3A3A2A1D7
:10457000A09F9F9E9D9C9C9B9A9999989797969592
:1045800095949393929191908F8F8E8E8D8C8C8B2E
:104590008B8A8989888887878685858484838382B6
:1045A000828181800000FF070000F87F4FEA41030D
:1045B0004FEA5353A3F58063D3F11E03C8BFD3F171
:1045C000210C0CDD4FF0004242EAC12242EA505277
:1045D00032FA03FC8CEAE17CACEBE1707047102B03
:1045E000C4BF0020704703F5787CBCF1FF3F04D0C6
:1045F0006FF0004282EA2100704770B500F044F984
:104600004992248000207047F2E700004FEA1153DE
:10461000A3F58063D3F11E03A8BFD3F1200C08DB00
:104620004FF0004242EAC12252EA505232FA03F0FD
:10463000704709420BD4102BC4BF0020704703F50C
:10464000787CBCF1FF3F05D04FF0FF3070474FF052
:104650000000704770B500F017F900BF4992248040
:1046600000207047F0E710F0004248BF4042B0FA27
:1046700080F310FA03F10AD0C3F11D0303F5806340
:104680004FEA415002EB035202EBD12170474FF049
:1046900000007047B0FA80F310FA03F10AD0C3F1BA
:1046A0001D0303F580634FEA41504FEA035202EBCA
:1046B000D12170474FF000007047000051EA030C11
:1046C00017D41CF5801F58BFBCF5801F00F1068071
:1046D000994218BF704708BF9042704707D711F53D
:1046E000801F58BF13F5801F19D499427047894223
:1046F00070471CF5801F08D5BCF5801FF7D58B428D
:1047000018BF704708BF824270474FF4001C1CEB73
:10471000410F38BF1CEB430F01D28B42704770B57D
:1047200000F0B2F8922449004FF000514FF080534E
:10473000FFF7D8BDDFF848C170B51CEA111E1EBFD7
:104740001CEA13159EEA0C0F95EA0C0F00F06F801F
:1047500081EA030423EA4C134EEAD47E21EA4C1189
:1047600041F4801143F48013AE44A1FB024CA0FB42
:104770000365AEF17F7E361955EB0C05A1FB034CAA
:104780004CF10003A0FB021C16EB0C06654153F133
:104790000003094218BF46F0010613F4007F0BD155
:1047A0004FEA03314FEA0530340341EA155140EA3C
:1047B00016506FF003020AE04FEAC3214FEAC5200A
:1047C000F40241EA555140EA56506FF0020202EB02
:1047D0002E4201EB025585EACE710AD05FEA440C05
:1047E00018BF24F0004450F1000041F1000120EA1C
:1047F000D47040F2FE7C624500D270BDA84214BF66
:104800004FF080444FF04044002E08BF0024BEF11A
:10481000806FA8BFA1F1C041BDE8704080F28280E6
:104820004FF0000001F1C04101F0004170479EEAE5
:104830000C0F0CEA131518BF95EA0C0F06D04FF0B9
:10484000000081EA030E0EF0004170BD00F01CF87C
:104850008900013E00F007B800F009B84FEA430CA8
:104860005FEA5C5C08D081EA030100F05BB84FEAC4
:10487000410C5FEA5C5CF6D14FF0000001497047E3
:104880000000FF070000F87F0EF1020E2EF0030E6D
:104890005EF8046B364205D4012A43EB030515F597
:1048A000001F12D8012841EB010C1CF5001F0CD889
:1048B0000ED14FEAD17C15F5001F0CEB4C0C0CF11E
:1048C000020C08BF4CEBD37C04E04FF0080C01E075
:1048D0004FEAD37C0CEB4C0526FA05F606F00706EA
:1048E000B6F1040C06D20EEB860CBDE870404CF01D
:1048F000010C6047DFE80CF0090B02024FF00041A9
:104900004FF00000A1F5002170BD194610460128A6
:1049100051EB010418BFD4F5001484BF002001F04E
:10492000004170BD0808A0F500114FEA3101704741
:1049300053EA010C17D41CF5801F58BFBCF5801F2B
:1049400000F106808B4218BF704708BF8242704753
:1049500007D713F5801F58BF11F5801F19D48B425C
:1049600070479B4270471CF5801F08D5BCF5801F1F
:10497000F7D5994218BF704708BF904270474FF46F
:10498000001C1CEB430F38BF1CEB410F01D29942B6
:1049900070470FB40CBC03BCFFF7C1BE91EA030F14
:1049A00010B581F000413FF5F5AB83F0004300F016
:1049B000EFB800002DE9F04101F5801CBCF5001FA7
:1049C000C0F2C3804FEA115C21EA0C510CF1FD0CDE
:1049D00041F480115FEA5C0C0CF5C07C01D340000F
:1049E00049413DA4890241EA905187028E0E0A0C8A
:1049F000A45D04FB04F602FB06F6C6F14046A4FBE8
:104A00000662F60D46EA422606FB06F4A4FB0123E5
:104A10005242C3F1404338BF5B1EA6FB0242002452
:104A2000E6FB0324D20B42EA4446A6FB0623A1FB85
:104A300002E2A3FB07E4A4184FF0000252F10002C7
:104A4000E3FB01426442C2F1404E38BFAEF1010EB9
:104A5000A6FB04234FF00002E6FB0E32A2FB034646
:104A60004FF00004B61954F10004E2FB0264A1FB0C
:104A700006E6A4FB07E816EB08064FF0000858F11D
:104A80000008E4FB01687642C8F1405838BFA8F13D
:104A90000108A2FB06E4A3FB08E52D194FF0000472
:104AA00054F10004E2FB0854A1FB05E6A7FB04E86F
:104AB00018EB06084FF0000656F10006E1FB0486ED
:104AC00018F1200556F10006A809A8F11B08B10944
:104AD00008F03F08B8F10A0F40EA86601CD901EBE4
:104AE0000C51BDE8F08100BFFCF5EEE8E2DDD8D363
:104AF000CFCBC7C3C0BDB9B6B4B1AEACA9A7A5A34F
:104B0000A19F9D9B9A9896959392908F8D8C8B895F
:104B10008887868584838281A0FB006800FB01F280
:104B200008EB4208B8EB872807D5341858EB010486
:104B3000D5D5401C51F10001D1E7341A78EB0104BE
:104B4000CDD4401E71F10001C9E75FEA4C0C5FEA69
:104B50009C5C0DD105D34FF0000001F00041BDE891
:104B6000F081BDE8F04170B5FFF78EFE6DDBFFBE52
:104B7000BDE8F0414FF00000004970470000F87FA9
:104B800010B591EA030F48BF83F000433FF502AB35
:104B9000841A71EB030C07D212198CF0004C43EB12
:104BA0000C03001B61EB0C01DFF8A4E14FEA115488
:104BB000A4EB135C1EEA430F18BF9EEA445F00F0AB
:104BC000B08023EA6E03524221EA0451C3EB6E0324
:104BD00038BF5B1EDCF1200E25D322FA0CFE10EB51
:104BE0000E0043FA0CFE41EB0E01CCF1200E03FA4D
:104BF0000EFE10EB0E0051F10001CCF1200E29D475
:104C000012FA0EF201EB0451BDE8104058BF704794
:104C1000401C1CBFB2F1004F704700280CBF491C5C
:104C200020F00100704712EB020E43EB030218BFA5
:104C30004FF0010E4EEA4202ACF1200CDCF11E0EE8
:104C400054D943FA0CFE10EB0E0051F1FF31CCF1B8
:104C50001E0ED5D50EF1010E12FA0EFE404141EBAB
:104C6000010101EB445C5FEA5C5C10D910EBDE7083
:104C700001EB045138BFBEF1004FBDE8104018BF32
:104C8000704700280CBF491C20F00100704730D24B
:104C90004FEAD42C11F5001124F400641BD0B1FAB2
:104CA00081F20B3AA41AA41ED2F12003914030FAEB
:104CB00003F31943904001EBCC71002C01EB04513C
:104CC000BDE81040A8BF704701F1C0414FF000009F
:104CD00001F000417047B0FA80F310FA03F100D1FF
:104CE00010BDE41A173C4805C90AE4E701EB04517A
:104CF00010BD491001EB0451BDE810404FEA3000EF
:104D000002E04FF0000170474A0008BF0042F8D0AF
:104D1000B2F5001F28BF704701F000414FF00000BE
:104D200070479EEA445F07D011EA5E0FBDE810406D
:104D300004BF002100207047BDE8104070B5FFF7A8
:104D4000A3FD00BF40DFF63E83F0004110467047F0
:104D50000000E0FF90EA010F48BF81F0004100F140
:104D60002E82421A3CBF801A89184FEAD0524FF067
:104D70007F4C1CEA410FA2EBD15318BF9CEA026F93
:104D800000F03B804FF0004C4CEA00204CEA01213F
:104D900021FA03FC10EB0C0C1ED202F1FF325FEA89
:104DA0001C2040EBC25038BF70471CF07F0F4FEA09
:104DB000400C18BFBCF17F4F38BF7047C3F12003D0
:104DC000994008BF20F00100BCF17F4F38BF704709
:104DD000A0F1C04000F0DDB94FEA3C00000A40EB12
:104DE000C25028BF1CF0FF0F4FEA400CE6D018BF9E
:104DF000BCF17F4F38BF7047EAE79CEA026F05D0ED
:104E000010EA5C0F08BF00F00040704710B500F0DA
:104E10007AF900BF64FBBE3E4FF47F0C1CEAD0124F
:104E20001EBF1CEAD11392EA0C0F93EA0C0F00F09C
:104E3000858090EA010F48BF42F4807240F4000C74
:104E400041F400002CF07F4120F07F4000B581420A
:104E5000A2EB03020FF2081CACEB504EC0F10000B5
:104E60009EF800E04FEA4E0E00FB0EFC38BF4900F2
:104E70004FEA2C1C02F5FA020CFB0EF34FEACE1E91
:104E80004FEA112C4FEAC1210EEB635E42EB224246
:104E90000EFB0CFC4FEA1C5300FB03114FEA112CD4
:104EA0004FEA01310EFB0CFC4FEADC4C00FB0C110D
:104EB000C14228BF09184CEB03335DF804EB10EB3B
:104EC000410143EBC250B2F57C0F38BF704729D582
:104ED00012F0F00F1CBF00F1C04000F0004070471E
:104EE000008182838485868788898B8C8D8E8F91C3
:104EF0009293959697999A9C9D9FA0A2A3A5A7A8E7
:104F0000AAACAEB0B2B3B5B7B9BCBEC0C2C5C7C912
:104F1000CCCED1D4D7D9DCDFE2E6E9ECF0F3F7FA76
:104F2000FE0000004FEA400C0CF1807CBCF17E4F8B
:104F300028BF7047B0F1C04000F02BB990EA010FD4
:104F40000CEAD11348BF42F48072624538BF634512
:104F500007D213F47F0F16D080EA010000F0004062
:104F6000704710B500F0CFF8097EFC3E00F005B8A0
:104F700080EA010000F00040704780EA010000F084
:104F8000004000F006B912F47F0F04BF02487047DA
:104F900080EA010000F0FDB80000C07FC10DD1F132
:104FA0009E0206DB4FEA002343F0004323FA02F09F
:104FB0007047004207D54FEA4001B1F1FE4F02D2DF
:104FC0004FF00000704710B500F09DF84992248022
:104FD000002070476FEA200070470000B0FA80F3AD
:104FE00010FA03F2C3F19D030AD0D90501EB122098
:104FF000530638BF704700F1010008BF20F00100E0
:10500000704700004FF47F0C1CEAD0121EBF1CEA50
:10501000D11392EA0C0F93EA0C0F00F0478090EA4C
:10502000010F48BF42F480724FF0004C4CEA002060
:105030004CEA012102EB0302A0FB0113A2F50002DE
:10504000002918BF43F001035B0028BF4FEA330378
:1050500042EB22425FEA132C4CEBC2502EBFBCEB5A
:10506000436FB2F57C0F70474FEA036CBCF1004F01
:1050700008BF20F00100B2F57C0F38BF70470BD598
:1050800082F0FF0212F5803FC8BF704700F1C040B8
:10509000D8BF00F00040704700F5000C5FEA4C0CF0
:1050A00048BF7047B0F1C04000F073B890EA010FFC
:1050B0000CEAD11348BF42F48072624538BF6345A1
:1050C00004D280EA010000F00040704710B500F003
:1050D0001AF800BF8900013E00F007B800F009B8D7
:1050E0005FEA410C5FEA1C6C08D080EA010000F026
:1050F00050B85FEA400C5FEA1C6CF6D14FF00040FC
:10510000A0F5800070470EF1020E2EF0030E5EF83F
:10511000044B244204D44FEA4102B2F17F4F11D82C
:105120004FEA4003B3F17F4F0CD80ED14FEAD07C49
:10513000B2F17F4F0CEB4C0C0CF1020C08BF4CEBA6
:10514000D17C04E04FF0080C01E04FEAD17C0CEB7D
:105150004C0324FA03F404F00704B4F1040C06D25F
:105160000EEB840CBDE810404CF0010C6047DFE80A
:105170000CF0070802024FF00040A0F5800010BDBF
:105180000846420018BFD2F1807288BF00F000408C
:1051900010BDFF2141EAD050C005704780F00040AB
:1051A00090EA010F7FF5DDAD81F0004100F007B816
:1051B00090EA010F48BF81F000413FF5D2AD421A9D
:1051C00004D882F00042A0EB020011444FEAD05212
:1051D0004FF07F4C1CEA410FA2EBD15318BF9CEA61
:1051E000026F4AD04FF0004C4CEA00204CEA0121FB
:1051F00021FA03FCB0EB0C0C0FD412F0FE0F36D0EA
:105200005FEA4C001DD5001240EBC25038BF70471A
:105210001CF03F0F18BF70470BE0A2F101025FEADC
:105220001C2040EBC25038BF70471CF07F0F18BFE6
:105230007047C3F12003994014BF401E20F00100C5
:10524000704780084FEA122308BF7047B0FA80FC0D
:10525000A2EB0C02CCF1280C60FA0CF093EA122FAE
:1052600004BF00EBC25070474FEAC3707047130A87
:105270005FEADC1008BF7047F6E79CEA026F04D0D3
:1052800010EA5C0F08BF0020704710B5FFF73BFF26
:1052900040DFF63E81F000407047FDF754BB0CF054
:1052A0000F03092B08BF082000F059800A2B0BD0F0
:1052B000082B18BF704708BF1CF0400F0AD04FF0F2
:1052C00000004FF0000170471CF0400F18BF4FF076
:1052D000004070471CF0100F08D020F0704300F021
:1052E0007F4242EAD3014FEA4370704700F06040CA
:1052F00021F07F4242EA000201F07F4040EA7270F2
:1053000070474FF0FF0C4CF4E06C1CEA11531CBFCB
:105310009CEA030C9445C2BFDA4201EB025170478C
:10532000002B0DD0BCF1000F0FD0002A01F000417E
:10533000A4BF41F0E04141F07F614FF000007047B1
:1053400001F000414FF00000704750EA01334FF088
:105350009B0C18BF4CF0806C7EF4BCAF70471CF403
:10536000801F11D01CF4E02F03D06FEACC3149002C
:1053700070474FF04050EFF3008222F0704242EA53
:10538000000282F3008870474FF000007047534DD1
:105390005320526561647900000000000000F03F76
:1053A000000000000000F83F0000000000000000C6
:1053B0000000004003B8E23F0000000000000000D1
:1053C00006D0CF43EBFD4C3E033333333333E33F5F
:1053D000FFAB6FDBB66DDB3F4D268F515555D53F8B
:1053E00001411DA96074D13F65DBC9934A86CD3F59
:1053F000EF4E454A287ECA3F3E5555555555C53F47
:1054000093BDBE166CC166BF2CDE25AF6A56113F38
:10541000F16BD2C541BDBBBED0A4BE726937663E3A
:1054200000000000000000003031323334353637E0
:1054300038394142434445464030580030313233D8
:1054400034353637383961626364656640307800D8
:10545000040000080000000000000002000100003D
:10546000100000000000000000000000000000002C
:1054700002400000000000A0000000000540000005
:10548000000000C8000000000C4000000000409C2C
:1054900000000000194000000020BCBE0000000019
:1054A00034400000BFC91B8E00000004B54000005E
:1054B000504BCFD06607E2CF010000006C410000E6
:1054C0003E8251AADFEEA73401000000D94200005D
:1054D000DCB5A0E23A301F97FFFFFFFFB4450000A4
:1054E000FD25A0C8E9A3C14FFFFFFFFFFF3F00005C
:1054F0000000008000000000FF3F0000000000806E
:10550000000000005056000800000020500000007D
:105510006C010008A0560008500000205809000047
:10552000880100081C00000043000000F8FFFFFF96
:105530000C0000000E0000000F0000002E00000014
:105540001001000043000000F8FFFFFF0040404052
:105550004040404040404141414141404040404046
:1055600040404040404040404040404040050202F2
:1055700002020202020202020202020202202020B1
:10558000202020202020200202020202020290900D
:10559000909090901010101010101010101010100B
:1055A000101010101010101002020202020288885F
:1055B000888888880808080808080808080808086B
:1055C0000808080808080808020202024000000053
:1055D00000000000000000000000000000000000CB
:1055E00000000000000000000000000000000000BB
:1055F00000000000000000000000000000000000AB
:10560000000000000000000000000000000000009A
:10561000000000000000000000000000000000008A
:10562000000000000000000000000000000000007A
:10563000000000000000000000000000000000006A
:10564000000000000000000000000000000000005A
:10565000000000000000000000000000000000004A
:10566000454E0000000000000000000000000000A7
:105670000000000000000000AAAA020C00000000C8
:10568000000000000000000000000000000000001A
:10569000000000000000000000000000000000000A
:0400000508000131BD
:00000001FF
